:10000000A009040000000000000000000000000043
:1000100000000000000000000000000000000000E0
:1000200000000000000000000000000000000000D0
:1000300000000000000000000000000000000000C0
:1000400000000000000000000000000000000000B0
:101340002F862000F0FF270020A0B700100020000B
:1013500034A0B700400020004420B700C0090200BC
:1013600000000000CA09020000000000A2FF070000
:10137000BEFF0700CEFF0700FEFF3700FFFF37006C
:1011F8008A1F78008B1F78008C1F78001CC0B300F2
:101208001620EF001420EF0027FF07001CC0B300D2
:101218007BC0B3001420EF0023FF0700A0072800BD
:10122800800578001420EF00DEFF07000B5822002D
:101238000C0020000AC3B300B5FF070038002000E7
:10124800578D20000E20ED00FEFF3A001020ED0023
:10125800FCFF3A004F067800CF0578004F0578006C
:04126800000006007C
:100EB0008A1F78008B1F78000A0037000B457800E6
:100EC0008C4578002EFF07000B0037000B4578009B
:100ED0008C4578008AFF07000700370010C0B30078
:100EE000050037006054E100F4FF32006154E10076
:100EF000F6FF3200F9FF3700CF0578004F05780084
:040F000000000600E7
:100B8000F0FF2F002AA3B700F0FF2F002CA3B7001F
:100B9000F0FF2F006CA3B7003E0037001600AE0038
:100BA000C702A9001600AF00C702A8005200370014
:100BB0001600AE00CC22A9001600AF00CC22A8007F
:100BC0004D0037001600AE00CC42A9001600AF0061
:100BD000CC42A800480037001600AE00DEC2A900D3
:100BE0001600AF00DEC2A800430037001600AE00BA
:100BF000DEE2A9001600AF00DEE2A8003E003700EA
:100C00001600AE00DF02A9001600AF00DF02A80048
:100C1000390037001600AE00D202A9001600AF005E
:100C2000D202A800340037001600AE00C182A9002D
:100C30001600AF00C182A8002F0037001600AE00DA
:100C4000DE82A9001600AF00DE82A8002A0037006D
:100C50001600AE00DEA2A9001600AF00DEA2A800BA
:100C6000250037001600AE00C042A9001600AF00F4
:100C7000C042A800200037001600AE00C062A900E4
:100C80001600AF00C062A8001B00370010C0B30000
:100C90001A0037006054E100C0FF32006154E100E7
:100CA000C3FF32006254E100C6FF32006354E1002A
:100CB000C9FF32006454E100CCFF32006554E1000A
:100CC000CFFF32006654E100D2FF32006754E100EA
:100CD000D5FF32006854E100D8FF32006954E100CA
:100CE000DBFF32006A54E100DEFF32006B54E100AA
:100CF000E1FF3200E5FF370000C0B300000006004E
:100D0000F0FF2F002AA3B700F0FF2F002CA3B7009D
:100D1000F0FF2F006CA3B7003E0037001600AE00B6
:100D2000C722A9001600AF00C722A8005200370052
:100D30001600AE00CC62A9001600AF00CC62A8007D
:100D40004D0037001600AE00CC82A9001600AF009F
:100D5000CC82A800480037001600AE00DEC2A90011
:100D60001600AF00DEC2A800430037001600AE0038
:100D7000DEE2A9001600AF00DEE2A8003E00370068
:100D80001600AE00DF02A9001600AF00DF02A800C7
:100D9000390037001600AE00D222A9001600AF00BD
:100DA000D222A800340037001600AE00C1A2A9006C
:100DB0001600AF00C1A2A8002F0037001600AE0039
:100DC000DF82A9001600AF00DF82A8002A003700EA
:100DD0001600AE00DFA2A9001600AF00DFA2A80037
:100DE000250037001600AE00C042A9001600AF0073
:100DF000C042A800200037001600AE00C062A90063
:100E00001600AF00C062A8001B00370010C0B3007E
:100E10001A0037006054E100C0FF32006154E10065
:100E2000C3FF32006254E100C6FF32006354E100A8
:100E3000C9FF32006454E100CCFF32006554E10088
:100E4000CFFF32006654E100D2FF32006754E10068
:100E5000D5FF32006854E100D8FF32006954E10048
:100E6000DBFF32006A54E100DEFF32006B54E10028
:100E7000E1FF3200E5FF370000C0B30000000600CC
:1011AC008A1F7800080037000B0578004AFE0700FC
:1011BC000A0037000B0578004FFE070007003700C8
:1011CC0010C0B300050037006054E100F6FF320098
:1011DC006154E100F7FF3200F9FF37004F0578004A
:0411EC0000000600F9
:100AE4008A1F78008B1F78001A05BE0053FF070089
:100AF40000C0B300CF0578004F0578000000060061
:100840000800FA00A03F20005042880080402000AD
:1008500040428800002E200030428800402D2000B9
:10086000204288003022EF000000280032A2B700AA
:100870003062A900EBFE07000001BE00803E2000B0
:10088000010020003FFF07000001BE00E3FE07005B
:100890004100DE00640040008000780060004700F6
:1008A0000A88BE008100E900030035001018D0005E
:1008B0001090D200FBFF3700829FBE008A9FBE00CF
:1008C0000200BE000E0190009E0190000002EB00AD
:1008D00000FF07004F05BE004F01BE002007980033
:1008E000310798008A9FBE000200BE000E019000F2
:1008F0009E0190000002EB00CDFE07004F05BE00F8
:100900008001780001027800600047005001D100AA
:10091000C080D300640047003008E1002090E1006F
:100920000700310061804100E0004A008002780049
:100930000103780005017800860178000200370085
:1009400003017800840178000280710033003A00CE
:10095000B4FE07000001BE00803E20000100200020
:1009600008FF07000001BE00ACFE07004100DE00EA
:1009700000A0EC0080007800600047000A88BE00FC
:100980008100E900030035001018D0001090D2005B
:10099000FBFF3700829FBE000200BE000E019000E8
:1009A0009E0190000002EB00CAFE07004F01BE004E
:1009B00020079800310798000200BE000E01900049
:1009C0009E0190000002EB0099FE07008001780074
:1009D00001027800600047005001D100C080D300C0
:1009E000640047003008E1002090E100070031007A
:1009F00061804100E0004A00800278000103780035
:100A000005017800860178000200370003017800B4
:100A1000840178003062A8000000370061005100B6
:100A2000E0805900C01188003222A90031E2A800FC
:100A30003342A80072FE070071FE07000080FA0032
:040A400000000600AC
:0C04240000F42100010020000000060090
:08041C00200020000000060092
:1004000038002000578D20000E20ED00FEFF3A003E
:0C0410001020ED00FCFF3A000000060088
:100584000000FA00020AB800500088000200B80017
:1005940081004200032AB800810042000080FA0072
:0405A400000006004D
:1004D4000000FA0002000700BE0204000000000051
:1004E4000800E20002003A001000070000000600C5
:1004F400811F78000200E20002003D00600010004D
:10050400E08018000600E20002003D0060011100D6
:10051400E0811900050007004F00E00002003B00E5
:1005240060001000E08018000000060002000700D0
:100534000480BE00000006006022B800060220000D
:100544000000D0008180D2000482D2008582D200D3
:100554000000A8000202520083825A0003003B00FC
:100564000202420083824A000000A1000603E9005F
:10057400F3FF3A00000006000080FA0000000600C5
:100430000000FA000200070066020400000000004D
:100440000800E20002003A00100007000000060069
:10045000839F68000200E20002003D00600010007F
:10046000E08018000600E20002003D00600111007B
:10047000E0811900050007004F00E00002003B008A
:1004800060001000E0801800000006006022B80044
:10049000060220000000D0008180D2000482D20039
:1004A0008582D2000000A8000202520083825A0016
:1004B00003003B000202420083824A000000A100C8
:1004C0000603E900F3FF3A00000006000080FA008E
:0404D0000000060022
:100B04008A1F78008B1F78001A05BE00B0FE07000C
:100B140000C0B300CF0578004F0578000000060040
:1005D4000800FA00C03E200050428800404120003C
:1005E40040428800E052200030428800205220001F
:1005F400204288002022EF000000280022A2B70039
:100604002062A90086FF07000001BE00803E200092
:1006140001002000DAFF07000001BE007EFF070092
:100624004100DE0064004000800078006000470064
:100634000A88BE008100E900030035001018D000CC
:100644001090D200FBFF3700829FBE008A9FBE003D
:100654000200BE000E0190009E0190000002EB001B
:100664009BFF07004F05BE004F01BE002007980006
:10067400310798008A9FBE000200BE000E01900060
:100684009E0190000002EB0068FF07004F05BE00CA
:100694008001780001027800600047005001D10019
:1006A400C080D300640047003008E1002090E100DE
:1006B4000700310061804100E0004A0080027800B8
:1006C40001037800050178008601780002003700F4
:1006D40003017800840178000280710033003A003D
:1006E4004FFF07000001BE00803E200001002000F3
:1006F400A3FF07000001BE0047FF07004100DE0022
:1007040000A0EC0080007800600047000A88BE006A
:100714008100E900030035001018D0001090D200C9
:10072400FBFF3700829FBE000200BE000E01900056
:100734009E0190000002EB0065FF07004F01BE0020
:1007440020079800310798000200BE000E019000B7
:100754009E0190000002EB0034FF07008001780046
:1007640001027800600047005001D100C080D3002E
:10077400640047003008E1002090E10007003100E8
:1007840061804100E0004A008002780001037800A3
:100794000501780086017800020037000301780023
:1007A400840178002062A800000037006100510035
:1007B400E0805900401188002222A90021E2A8000B
:1007C4002342A8000DFF07000CFF07000080FA0079
:0407D400000006001B
:101118008A1F78008B1F78008C1F78001200370018
:101128000B0578008C0578007CFE07001900370055
:101138000B0578008C05780059FF0700150037006B
:101148000B0578008C0578004BFF0700110037006D
:101158000B0578008C0578004CFF07000D00370060
:1011680010C0B3000B0037006054E100ECFF320000
:101178006154E100EEFF320000C2B3000054E10008
:10118800EFFF320000C3B3000054E100F0FF32006B
:10119800F3FF37004F067800CF0578004F05780039
:0411A800000006003D
:100B240046FF0700A03F2000004388000020EF009C
:040B340000000600B7
:080EA80060C0B3000000060069
:100E80006FFE0700A03F2000004388000020EF0015
:040E90000000060058
:100E9400CFFD0700C03E2000004388000020EF0083
:040EA4000000060044
:10126C008A1F78008B1F78004B0728004A0428003F
:10127C0063FF07002BC0B3000A8020006CFF07003F
:10128C0038002000578D20000E20ED00FEFF3A00A4
:10129C001020ED00FCFF3A00CF0578004F057800D8
:0412AC000000060038
:10100C008A1F78000B0578009DFE07004F057800BD
:10101C0094FE0700618520000020EF0080487800D6
:10102C00318420000020EF0080487800000006008A
:100A8C001A00780060428800E200450011007800EE
:100A9C0070428800E400450011007800A0428800F4
:040AAC000000060040
:100A7000F800450011007800904288006E80400028
:0C0A800010007800804288000000060092
:10103C000200FA008A1F78008A007800D000200095
:10104C0000479800A00020001047980025003700AA
:10105C000105780093FE0700290037000100780095
:10106C001004E00008003200801F78008A9FBE0048
:10107C00000578008BFE07004F05BE004F0078007E
:10108C000020EC00F6FF37001D003700010078004F
:10109C001004E00008003200801F78008A9FBE0018
:1010AC00000578007FFE07004F05BE004F0078005A
:1010BC000020EC00F6FF3700600047008A9FBE005E
:1010CC000005780077FE07006100470000057800F6
:1010DC0074FE07004F05BE000900370060C0B30066
:1010EC0007003700605CE100D9FF3200615CE10071
:1010FC00DAFF3200625CE100E4FF3200F7FF3700F8
:0C110C004F0578000080FA00000006008B
:100AB0008A1F78001A85FB000043800000000100B7
:0C0AC0000020EF004F0578000000060049
:1007D8000000FA002302AF0001003700FDFF3700D8
:0C07E8002A1188000080FA0000000600C2
:1007F4000000FA003302AF0001003700FDFF3700AC
:0C080400AA1188000080FA000000060025
:1012B0000200FA008A1F78008B1F7800CCFF07001D
:1012C0000040E200040032000EFF07008045780075
:1012D000AA8520000DFF070027FF070000479800A0
:1012E00021C0B3000104E10003003A002BC0B300A9
:1012F0005A82200051FF07008E40900040C0B3008A
:10130000000CE10003003A002BC0B3008A812000EA
:101310004AFF07008E40900010C0B300000CE100AF
:1013200003003A002BC0B300CA80200043FF07002F
:10133000CF0578004F0578000080FA000000060015
:0811F00039FE070000000600B3
:0C0AD800A14280000100010000000600A7
:100828000000FA0000000000000000002682BF005F
:080838000080FA000000060038
:100A5C000000FA002282BF00610060000080FA00F2
:040A6C000000060080
:100A44000000FA000020EF002302AF000020EC00B9
:080A54000080FA00000006001A
:100810000000FA0000000000000000003682BF0067
:080820000080FA000000060050
:1005C0000000FA003282BF00610060000080FA0083
:0405D0000000060021
:1005A8000000FA000020EF003302AF000020EC004A
:0805B8000080FA0000000600BB
:080F0400F1FE070000000600E9
:0C0ACC00714280000100010000000600E3
:100F0C00CA428800308420001080FB00000045009D
:100F1C000B4878001620EF0011C0B300308420007D
:100F2C0010C840009A40780000C4B300000CE100E7
:100F3C0003003200318420000020EF00804878004C
:100F4C0030842000104078006404E10006003A0070
:100F5C00318420000020EF0080487800618520005B
:0C0F6C0010C0B3008048780000000600B0
:100F78008A1F78008B1F7800608520001040780059
:100F88006104E1001B003A00618520000020EF00A9
:100F980080487800D083200080057800CA4280000D
:100FA800E3FE07006004E10002003A0010C0B3004D
:100FB800110037007083200080057800CA42800045
:100FC800DBFE07006004E10002003A0020C0B30025
:100FD800090037001083200080057800CA4280008D
:100FE800D3FE07006004E10002003A0040C0B300ED
:100FF800010037000020EF00CF0578004F0578008A
:0410080000000600DE
:100B38001A4078001B04E1000D003A001A407800C2
:100B48006004E10005003A001B4078009A80FB0031
:100B58000080FB000080500006003700610045005F
:100B6800000578006180450080057800F0FF3700B7
:080B780010C0B30000000600EC
:101380000A8020000B002000300009000B1D7800AF
:041390000000060053
:10139400018020000000280020000900B018780017
:0813A400B058780000000600BB
:020000040001F9
:10000000496E000069740000696100006C690000BD
:080010007A65000064000000A5
:100018004D6F0000766900006E67000020610000E7
:0800280077610000790000007F
:100030004E6F0000206D00006F76000065730000B9
:100040006D6500006E7400000041000070700000DB
:10005000726F000061630000686900006E67000055
:10006000004000004E0D00000A00000000400000AB
:10007000430D00000A000000004000004C0D00008D
:080080000A000000000000006E
:10008800FFFF0000FFFF0000FFFF0000FFFF000070
:10009800FFFF0000FFFF0000FFFF0000FFFF000060
:1000A800FFFF0000FFFF0000FFFF0000FFFF000050
:1000B800FFFF0000FFFF0000FFFF0000FFFF000040
:1000C800FFFF0000FFFF0000FFFF0000FFFF000030
:1000D800FFFF0000FFFF0000FFFF0000FFFF000020
:0C00E800FA03000008040000E002000021
:0800F40080250000000000005F
:0200000401F009
:20000000CF000000CF00000007000000A2000000850000007F000000E7000000C3000000EB
:00000001FF
