:02000004000BEF
:10000000FCFF0020F5140B009D140B009D140B0049
:100010009D140B009D140B009D140B009D140B00F0
:100020009D140B009D140B009D140B009D140B00E0
:100030009D140B009D140B009D140B009D140B00D0
:100040009D140B009D140B009D140B009D140B00C0
:1014F400FFF7D6FF00F00EF8FFF7E4FF00F038F92D
:1015040000F070F8FFF7CAFEFFF7F0FEFFF744FFA4
:04151400FCE7FEE70B
:1013600081B04FF000094FF0000CBDEB0A0F04DC18
:10137000BDEB0B0F01DBD446EA464BF8049BBBEBFD
:101380000A0FFAD1BCEB0A0F05DDE246D9F800B02E
:0A1390000BF1040BF1E701B0704708
:1012A00081B0CDF800E0002200210020FFF7B4FF5C
:1012B000002207210020FFF7AFFF0C490020FFF7B5
:1012C0002DFF42F280510120FFF7C4FF46F6FE17C2
:1012D000C0F2180700BF00BF7F1EFDD100BF00BFD6
:1012E00000BFDDF800E001B0704700BF44170B00FD
:1012180081B0CDF800E05FFA81FA5FFA82FB30B95D
:101228005FFA8BF15FFA8AF0FFF796FD09E0012873
:1012380006D15FFA8BF15FFA8AF0FFF775FC00E0E0
:0A1248000120DDF800E001B070475E
:100D600082B0CDF800E000228DF8042050B921B9FE
:100D700001215048FFF724FD03E001214D48FFF712
:100D80002DFD91E001280AD121B920214A48FFF721
:100D900017FD03E020214848FFF720FD84E00228EA
:100DA0000AD121B908214548FFF70AFD03E00821CF
:100DB0004248FFF713FD77E003280AD121B910213B
:100DC0003F48FFF7FDFC03E010213D48FFF706FD1B
:100DD0006AE004280AD121B940213948FFF7F0FC24
:100DE00003E040213648FFF7F9FC5DE005280AD111
:100DF00021B910213148FFF7E3FC03E010212F480F
:100E0000FFF7ECFC50E006280AD121B910212D484B
:100E1000FFF7D6FC03E010212A48FFF7DFFC43E090
:100E200007280AD121B901212548FFF7C9FC03E0B1
:100E300001212348FFF7D2FC36E008280AD121B966
:100E400020212148FFF7BCFC03E020211E48FFF7CA
:100E5000C5FC29E009280AD121B910211A48FFF759
:100E6000AFFC03E010211848FFF7B8FC1CE00A288B
:100E70000AD121B901211548FFF7A2FC03E00121A5
:100E80001248FFF7ABFC0FE00B280AD121B98021F3
:100E90000A48FFF795FC03E080210848FFF79EFC15
:100EA00002E002228DF804209DF80400DDF800E045
:100EB00002B070470012084080100840001008403F
:100EC00060100840601108400011084020100840E0
:1007C00081B0CDF800E0044AC9B2FFF76BFEDDF856
:0C07D00000E001B0704700BF0004100002
:1004A40081B0344B984240F2000401D96FF000044B
:1004B400314B984240F2000301D26FF0000344EA4A
:1004C400030303B153E02C4BC31A03F01F0303B11E
:1004D4004DE0074600F5A06318464FF6FF7302EAA5
:1004E40003031C46254B02EA03031B0C1A4640F285
:1004F400000900925FFA81F8214602460098B9F19A
:10050400080F40F2000601D26FF00006B1452ED864
:10051400012303FA09F408EA0403A34222D101F4F3
:10052400405363B14FEA8903FD182C686FF44053BC
:100534001C4001F4405344EA03032B6012E04FEAE9
:100544008903FD182C680D4B04EA03030B432B604D
:100554004FEA8903D5182C686FF0FF0304EA0303FC
:1005640003432B60B14502D009F10109C7E701B08B
:10057400704700BFC0120840001008400000FFFF91
:1007DC0081B0CDF800E0044AC9B2FFF75DFEDDF848
:0C07EC0000E001B0704700BF00062000D4
:100B300082B0CDF800E000228DF8042050B921B930
:100B400002215048FFF73CFE03E002214D48FFF729
:100B500045FE91E001280AD121B920214A48FFF73A
:100B60002FFE03E020214848FFF738FE84E00228EA
:100B70000AD121B908214548FFF722FE03E00821E8
:100B80004248FFF72BFE77E003280AD121B9102154
:100B90003F48FFF715FE03E010213D48FFF71EFE1A
:100BA0006AE004280AD121B940213948FFF708FE3C
:100BB00003E040213648FFF711FE5DE005280AD129
:100BC00021B910213148FFF7FBFD03E010212F4828
:100BD000FFF704FE50E006280AD121B904212B4872
:100BE000FFF7EEFD03E004212848FFF7F7FD43E09F
:100BF00007280AD121B904212648FFF7E1FD03E0C7
:100C000004212448FFF7EAFD36E008280AD121B97B
:100C100020212148FFF7D4FD03E020211E48FFF7E3
:100C2000DDFD29E009280AD121B910211A48FFF772
:100C3000C7FD03E010211848FFF7D0FD1CE00A288B
:100C40000AD121B901211548FFF7BAFD03E00121BE
:100C50001248FFF7C3FD0FE00B280AD121B980210C
:100C60000A48FFF7ADFD03E080210848FFF7B6FD15
:100C700002E002228DF804209DF80400DDF800E077
:100C800002B0704700120840801008400010084071
:100C90006010084020110840001108402010084052
:10111C0081B0CDF800E018B90846FFF7DDFD06E018
:10112C00012803D10846FFF7FBFE00E00120DDF8A3
:06113C0000E001B0704765
:100CE40082B0CDF800E0021D00F2080100F20C040D
:100CF4000368126809680192184623888AB2BDF80D
:100D04000410FFF777FD00230020FFF715FDFFF720
:100D14002FFD08B1FFF73CFDD8B2DDF800E002B0CA
:020D2400704716
:1007F80085B0CDF800E08446ADF80810ADF80C20BF
:10080800ADF8103000248DF804404E48FFF7F2FD93
:10081800FFF714FE00254C4C257000254B4C257025
:10082800BCF5E13F40F2000501D96FF00005484CE6
:10083800A44540F2000401D86FF0000405EA04045E
:1008480024B1434CB4FBFCF6324609E0BCF5E13F69
:1008580004D84FF4E134B4FBFCF600E0012632463C
:10086800FFF710FE02F0FF053A4C2570140A04F059
:100878007F05394C2570BCF5E13F06D9364C247804
:1008880044F08005344C257005E0334C247804F09E
:100898007F05314C2570FFF7D1FD00252F4C2570C1
:1008A800BDF80840012C06D19DF8044044F001042D
:1008B8008DF8044015E0BDF80840022C06D19DF8DB
:1008C800044044F002048DF804400AE0BDF80840F2
:1008D800032C06D19DF8044044F003048DF804402D
:1008E800FFE7BDF81040A500ADB29DF8044044EA0A
:1008F8000506BDF80C40E500ADB2F4B22C43E4B2F5
:1009080004F07F05154C25700025154C2570002531
:10091800144C2570144D154C2560154D154C25604B
:10092800154D164C2560164D164C2560164C24782E
:1009380044F00105144C25700020DDF800E005B0F6
:10094800704700BF78160B00F0270F4001240F40B6
:1009580060E3160000240F4001240F4003240F40D9
:1009680004240F4002240F4095070B002C000020A0
:100978003D070B003000002075070B0034000020F5
:0C098800FFFFFFFF3800002030270F4069
:1003FC0081B0CDF800E040F2000B82464FEA8B0151
:10040C000AEB01010968B1F1FF3F11D04FEA8B03F0
:10041C000AEB030109680A460AF13401C918096894
:10042C001046FFF7CDFF0BF1010B1FFA8BFBE5E735
:08043C00DDF800E001B070479B
:1003CC0081B0CDF800E00C4600F0FF02130902F0FA
:1003DC000F021546D8B2FFF763FF0122AA40D1B233
:0E03EC00224600F059F8DDF800E001B070473D
:1002AC0082B010B9324901915EE0012802D1314986
:1002BC00019159E0022802D12F49019154E0032801
:1002CC0002D12E4901914FE0042802D12C49019111
:1002DC004AE0052802D12B49019145E0062802D1BC
:1002EC002949019140E0072802D1284901913BE0BE
:1002FC00082802D12649019136E0092802D1254966
:10030C00019131E00A2802D1234901912CE00B28FC
:10031C0002D12249019127E00C2802D120490191F8
:10032C0022E00D2802D11F4901911DE00E2802D1B7
:10033C001D49019118E00F2802D11C49019113E0CD
:10034C00102802D11A4901910EE0112802D1194945
:10035C00019109E0122802D11749019104E01328F8
:10036C0002D116490191FFE7019802B0704700BF16
:10037C000010084020100840401008406010084051
:10038C0080100840A0100840C0100840E010084041
:10039C00001108402011084040110840601108402D
:1003AC0080110840A0110840C0110840E01108401D
:1003BC000012084020120840401208406012084009
:1004440081B00448007800F07F010248017001B0D7
:08045400704700BF03240F40B4
:10048C0081B00448007840F080010248017001B04E
:08049C00704700BF03240F406C
:10073C0082B0CDF800E08DF80400FFF77DFE08498B
:10074C00097801F02001C9B22029F8D19DF80410D4
:10075C0001F0FF0203490A70DDF800E002B07047B7
:08076C0005240F4000240F409A
:1007740081B00648007800F00100C0B2012801D120
:10078400012000E0002001B0704700BF05240F40A5
:1007940081B0CDF800E0FFF753FE0648007800F082
:1007A4000100C0B20128F8D103480078DDF800E068
:0C07B40001B0704705240F4000240F40E6
:100F2C0082B0CDF800E0021D00F2080100F20C04C2
:100F3C000368126809680192184623888AB2BDF8C2
:100F4C000410FFF753FC00230020FFF7F1FBFFF721
:100F5C000BFC08B1FFF718FCD8B2DDF800E002B0CA
:020F6C007047CC
:1012540081B0CDF800E018B90846FFF787FE0CE02E
:10126400012803D10846FFF747FE06E0102803D102
:101274000846FFF793FE00E00120DDF800E001B02E
:021284007047B1
:100F700082B0CDF800E000218DF80410002300229B
:100F80000321FFF739FC044A04490A609DF8040074
:100F9000DDF800E002B070473D070B0020000020A4
:100EFC0082B0CDF800E000218DF804100023002210
:100F0C000321FFF773FC044A04490A609DF80400AE
:100F1C00DDF800E002B070473D070B002000002018
:100FA00082B0CDF800E0824600218DF804102021A7
:100FB0001A48FFF713FC002219490A70184A1178E1
:100FC0006FF34511117046F6FE17C0F2180700BF07
:100FD00000BF7F1EFDD100BF00BF00BF104A1178C7
:100FE00041F02001117046F6FE17C0F2180700BF4D
:100FF00000BF7F1EFDD100BF00BF00BF0023002245
:1010000003215046FFF7C6FC064A07490A609DF8CF
:101010000400DDF800E002B0704700BF6011084036
:0C1020008B13084005060B002000002088
:1009940085B0CDF800E08446ADF80810ADF80C2021
:1009A400ADF8103000248DF804404E48FFF724FDC4
:1009B400FFF75EFD00254C4C257000254B4C25703F
:1009C400BCF5E13F40F2000501D96FF00005484C49
:1009D400A44540F2000401D86FF0000405EA0404C1
:1009E40024B1434CB4FBFCF6324609E0BCF5E13FCC
:1009F40004D84FF4E134B4FBFCF600E0012632469F
:100A0400FFF72AFD02F0FF053A4C2570140A04F0A2
:100A14007F05394C2570BCF5E13F06D9364C247866
:100A240044F08005344C257005E0334C247804F000
:100A34007F05314C2570FFF71BFD00252F4C2570D9
:100A4400BDF80840012C06D19DF8044044F001048F
:100A54008DF8044015E0BDF80840022C06D19DF83D
:100A6400044044F002048DF804400AE0BDF8084054
:100A7400032C06D19DF8044044F003048DF804408F
:100A8400FFE7BDF81040A500ADB29DF8044044EA6C
:100A94000506BDF80C40E500ADB2F4B22C43E4B257
:100AA40004F07F05154C25700025154C2570002594
:100AB400144C2570144D154C2560154D154C2560AE
:100AC400154D164C2560164D164C2560164C247891
:100AD40044F00105144C25700020DDF800E005B059
:100AE400704700BF0C160B00F02B0F4001280F407D
:100AF40060E3160000280F4001280F4003280F4030
:100B040004280F4002280F40FFFFFFFF2C000020A5
:100B140005060B0030000020FFFFFFFF340000201B
:0C0B2400FFFFFFFF38000020302B0F40C7
:1004740081B00448007800F07F010248017001B0A7
:08048400704700BF03280F4080
:10045C0081B00448007840F080010248017001B07E
:08046C00704700BF03280F4098
:1012F00084B0CDF800E018491848FFF723FF01AC8F
:10130000492020706E2060706920A0707420E07009
:1013100069202071612060716C20A0716920E071EA
:101320007A202072652060726420A0720020E07232
:1013300001AC03212046FFF71DFF46F6FE17C0F261
:10134000180700BF00BF7F1EFDD100BF00BF00BF58
:10135000DDF800E004B0704754170B00E4160B00F2
:1011440081B0CDF800E003460846FFF76DFF18466E
:10115400FFF7B4FD0023044A13700023034A1370FD
:10116400DDF800E001B07047070000200600002011
:10102C0081B0026806490A60011D0A6805490A6018
:10103C0000F208010A6804490A6001B0704700BF59
:0C104C00180000201C00002014000020F0
:100CC00081B000F230031A6804490A6003F21C0183
:100CD0000A6803490A6001B0704700BF0C00002099
:040CE00010000020E0
:1011740084B0CDF800E0039000228DF804200D2205
:101184008DF805200A228DF80620039C0022ADF874
:101194000820012903D12046FFF780FD33E002290E
:1011A40010D120460278002A0BD9FFF777FDBDF84D
:1011B4000820531C9BB2ADF80830039AD41820467B
:1011C400F0E720E003291BD120460278002A0CD93D
:1011D400FFF764FDBDF80820531C9BB2ADF808303E
:1011E400039AD21814462046EFE70DF10502104683
:1011F400FFF754FD0DF106021046FFF74FFD02E024
:1012040006228DF804209DF80400DDF800E004B007
:02121400704721
:100CA00081B0CDF800E00178CCB2E0B2034C24680A
:100CB000A047DDF800E001B0704700BF2000002031
:1006040082B0CDF800E08DF80400FFF731FF08490F
:10061400097801F02001C9B22029F8D19DF804100D
:1006240001F0FF0203490A70DDF800E002B07047F0
:0806340005280F4000280F40CB
:1005F400024A117860F300011170704790130840AB
:1005E400024A117860F34511117070478413084072
:10065C00024A117860F3C30111707047801308408F
:10064C00024A117860F3041111707047831308404B
:10058400024A117860F38611117070478313084092
:1005A400024A117860F304111170704780130840F7
:1005D400024A117860F30411117070478B130840BC
:1005C400024A117860F300011170704783130840E8
:1005B400024A117860F3451111707047881308409E
:10066C00024A117860F30411117070478813084026
:1006FC00024A117860F300011170704781130840B1
:1006EC00024A117860F3C7111170704780130840EB
:1006DC00024A117860F34101117070479013084081
:10068C00024A117860F3C711117070478413084047
:10067C00024A117860F34511117070478E130840CF
:1006CC00024A117860F304111170704783130840CB
:1006BC00024A117860F38611117070478313084059
:1006AC00024A117860F304111170704780130840EE
:10069C00024A117860F38201117070478013084090
:10070C00024A117860F38201117070478913084016
:10071C00024A117860F34511117070478813084034
:10072C00024A117860F30411117070478813084065
:10059400024A117860F3000111707047811308401A
:10063C00024A117860F3C71111707047801308409B
:10139C0086B0CDF800E0FFF7A7FE28B1FFF7AEFE50
:1013AC00C1B23A48FFF784FEFFF750FEC1B2C0B29B
:1013BC00022821D102AC4120207070206070702076
:1013CC00A0707220E0706F2020716120607163202A
:1013DC00A0716820E071692020726E206072672015
:1013EC00A0720020E07202AC8DF80410032120469C
:1013FC00FFF7BAFE9DF80410042923D102AC4E204D
:10140C0020706F2060702020A0706D20E0706F2025
:10141C002071762060716520A0717320E0716D20C1
:10142C002072652060726E20A0727420E072002021
:10143C00207302AC8DF8041003212046FFF794FEB4
:10144C009DF8041001291DD102AC4D2020706F2095
:10145C0060707620A0706920E0706E20207167208B
:10146C0060712020A0716120E071772020726120D2
:10147C0060727920A0720020E07202AC0321204639
:10148C00FFF772FEDDF800E006B0704700000020A8
:1010F40081B0CDF800E0FFF723FEDDF800E001B099
:02110400704732
:100D440081B0CDF800E0044C2468A047C0B2DDF8BF
:0C0D540000E001B0704700BF1400002058
:1011080081B0CDF800E0FFF70BFEDDF800E001B09C
:0211180070471E
:100D280081B0CDF800E0044C2468A047C0B2DDF8DB
:0C0D380000E001B0704700BF1C0000206C
:1010BC0081B00A4A10600A4B1A78821811701A46CD
:1010CC001278521CD2B21A70042A05D10023044A99
:1010DC0013700123034A137001B0704708000020FD
:0810EC000600002007000020AF
:1010580081B0CDF800E015480078012820D10021A2
:1010680012480170124800684FF04001FFF72CFF4A
:1010780008B9012015E00E4800680078C0B24FF0AA
:101088004001FFF721FF08B902200AE0084800687C
:1010980000784FF04001FFF717FF08B9042000E07F
:1010A8000020DDF800E001B0704700BF0700002015
:0410B800080000200C
:100ED00081B00091014600980B780278934209D1C5
:100EE0000A7822B90B7802789A1AD0B203E0491C2A
:0A0EF000401CF1E7012001B070473B
:1015180081B0CDF800E02B4B2B4A2C4C2C480068AE
:1015280040F002012A480160012A40F2000101D17D
:101538006FF00001032A40F2000001D16FF00000B3
:101548000143042A40F2000001D16FF0000001437A
:10155800102A40F2000001D16FF000000143302A48
:1015680040F2000001D16FF0000041EA000010B124
:101578001848026002E0012116480160C4F3C00265
:101588001549086862F3C3000860C4F38002124971
:10159800086862F382000860C4F340020E490868D4
:1015A80062F341000860C4F300020B49086862F363
:1015B80000000860FFF764FE08480360DDF800E0FB
:1015C80001B07047E00100000100000000000000C9
:1015D80008E000E00401084008A4004008010840B1
:1012880046F6FE17C0F2180700BF00BF7F1EFDD14B
:0812980000BF00BF00BF70475A
:1015E80081B004490448016004490548016001B01C
:1015F800704700BF80BB00002400002000000000EE
:041608002800002096
:08149C0081B0FEE701B07047CA
:1014C80081B04EF68850CEF20000016841F47001F8
:1014D800016000BF00BF00BF00BFF1EE100A40F47A
:0A14E8004000E1EE100A01B0704769
:1014A40081B0DFF81000DFF810100860D0F800D029
:1014B40000F004B800000B0008ED00E000BF01B02C
:0214C40070476F
:1017740000B5DFF810B0DFF810A0FFF7EFFD00BDF3
:0C178400704700BF000000203C00002067
:10160C00F1000000F0000000FFFFFFFF00000000F1
:10161C0000000000000000000000000000000000BE
:10162C0000000000000000000000000000000000AE
:10163C00000000000020000000200000000000005E
:10164C00000000000000000000000000000000008E
:10165C00000000000000000000000000000000007E
:0C166C0000000000000000000000000072
:101678008500000084000000FFFFFFFF000000005D
:101688000000000000000000000000000000000052
:101698000000000000000000000000000000000042
:1016A8000000000000100000001000000000000012
:1016B8000000000000000000000000000000000022
:1016C8000000000000000000000000000000000012
:0C16D80000000000000000000000000006
:1016E400F5050B00E5050B005D060B004D060B0030
:1016F40085050B00A5050B00D5050B00C5050B00E2
:10170400B5050B006D060B00FD060B00ED060B0086
:10171400FFFFFFFFFFFFFFFFFFFFFFFFFFFFFFFFD5
:10172400FFFFFFFFFFFFFFFFFFFFFFFFFFFFFFFFC5
:10173400FFFFFFFFFFFFFFFFFFFFFFFFFFFFFFFFB5
:1017440080250000030000000000000000000000ED
:0C1754003D070B0095070B0075070B000C
:06176000404E0D0A0000DE
:06176600404C0D0A0000DA
:06176C0040430D0A0000DD
:00000001FF
