:10000000FCFF0220A9150000611500006115000029
:100010006115000061150000611500006115000008
:1000200061150000611500006115000061150000F8
:1000300061150000611500006115000061150000E8
:1000400061150000611500006115000061150000D8
:1000500061150000611500006115000061150000C8
:1000600061150000611500006115000061150000B8
:1000700061150000611500006115000061150000A8
:100080006115000061150000611500006115000098
:100090006115000061150000611500006115000088
:1000A0006115000061150000611500006115000078
:1000B0006115000061150000611500006115000068
:1000C0006115000061150000611500006115000058
:1000D0006115000061150000611500006115000048
:1000E0006115000061150000611500006115000038
:1000F0006115000061150000611500006115000028
:100100006115000061150000611500006115000017
:100110006115000061150000611500006115000007
:1001200061150000611500006115000061150000F7
:1001300061150000611500006115000061150000E7
:1001400061150000611500006115000061150000D7
:1001500061150000611500006115000061150000C7
:1001600061150000611500006115000061150000B7
:1001700061150000611500006115000061150000A7
:100180006115000061150000611500006115000097
:0801900061150000611500007B
:1015A80000F00EF8FFF7DCFF00F0B4FBFFF7EEFFEA
:1015B800FFF7AAFFFFF7F0FEFFF726FFFCE7FEE7BD
:1013640081B04FF000094FF0000CBDEB0A0F04DC14
:10137400BDEB0B0F01DBD446EA464BF8049BBBEBF9
:101384000A0FFAD1BCEB0A0F05DDE246D9F800B02A
:0A1394000BF1040BF1E701B0704704
:1015100081B0CDF800E0002200210020FFF738FE66
:10152000002207210020FFF733FE0C490020FFF7BF
:101530000BFE42F280510120FFF75AFE40F6FE07F3
:10154000C0F23D0700BF00BF7F1EFDD100BF00BF3E
:1015500000BFDDF800E001B0704700BFEC1C0000E8
:1011900081B0CDF800E05FFA81F85FFA82F930B9EA
:1011A0005FFA89F15FFA88F0FFF75AFE12E0012832
:1011B00006D15FFA89F15FFA88F0FFF751FE09E086
:1011C000022806D15FFA89F15FFA88F0FFF748FE3E
:0C11D00000E00120DDF800E001B07047F5
:100E600082B0CDF800E000228DF8042060B929B9E5
:100E70004FF004015B48FFF7CBFE04E04FF00401A4
:100E80005948FFF7A1FEA7E001280CD129B94FF47A
:100E900000615448FFF7BCFE04E04FF40061524883
:100EA000FFF792FE98E002280CD129B94FF010010B
:100EB0004E48FFF7ADFE04E04FF010014C48FFF73D
:100EC00083FE89E003280CD129B94FF0200147485F
:100ED000FFF79EFE04E04FF020014548FFF774FE47
:100EE0007AE004280CD129B94FF080013F48FFF780
:100EF0008FFE04E04FF080013D48FFF765FE6BE098
:100F000005280CD129B94FF040013848FFF780FE81
:100F100004E04FF040013648FFF756FE5CE006283B
:100F20000CD129B94FF480613248FFF771FE04E01B
:100F30004FF480613048FFF747FE4DE007280CD1A1
:100F400029B94FF400512748FFF762FE04E04FF43F
:100F500000512548FFF738FE3EE008280CD129B99A
:100F60004FF004012548FFF753FE04E04FF0040161
:100F70002348FFF729FE2FE009280CD129B94FF0AB
:100F800008011E48FFF744FE04E04FF008011C482A
:100F9000FFF71AFE20E00A280CD129B94FF480711E
:100FA0001648FFF735FE04E04FF480711448FFF750
:100FB0000BFE11E00B280CD129B94FF400710F483A
:100FC000FFF726FE04E04FF400710D48FFF7FCFD2B
:100FD00002E001228DF804209DF80400DDF800E015
:100FE00002B0704750F00F4040F00F4090F00F40BB
:100FF00080F00F4010F00F4000F00F40D0F00F4095
:04100000C0F00F40ED
:100C100081B0CDF800E0034AFFF7CCFDDDF800E03D
:080C200001B07047040102005D
:1007B40081B0CDF800E0FFF7A1FFDDF800E001B063
:0207C40070477C
:1007000083B0CDF800E006460C4615463046FFF7AC
:10071000C5FE234B06EA030080090026224629462F
:100720004FF0010303FA06F402EA04031F46A34252
:100730002ED104031B4B1C19B300E51801952C683E
:10074000194B04EA03032B60184B01EA0304019BD5
:100750001B6843EA0404019B1C6001F48033B3F579
:10076000803F15D08401124B1B191433029301F4FE
:1007700000333BB1FC43029B1B6803EA0404029B69
:100780001C6005E0029B1B6843EA0704029B1C6097
:100790001F2E01D0761CC3E7DDF800E003B07047E0
:1007A000FF010000009004400000FFFFFFFF000079
:0407B00000F00F4006
:10049C0081B0094900EA0101890901F209024FF012
:1004AC00010101FA02F20549096841EA0202034915
:1004BC000A6001B0704700BFFF01000038800440A3
:100BC80081B0CDF800E0034AFFF7F0FDDDF800E062
:080BD80001B0704704010400A4
:1011480081B0CDF800E0002218B90846FFF756FF35
:101158000CE0012803D10846FFF772FF06E00228D9
:1011680003D10846FFF756FE00E00120DDF800E055
:0411780001B070470B
:1010040083B0CDF800E000218DF80810031D00F234
:10101400080200F20C0105681C6813680A68084994
:1010240002B40293A1B2284693B2BDF80820FFF798
:10103400A1FD01B09DF80800DDF800E003B07047A1
:04104400B41B0000D9
:100B780081B0CDF800E09FB203468DB296B2DDF8A1
:100B880004800848FFF782FE4446AAB21946B3B269
:100B9800044810B480B4FFF749FE02B0DDF800E065
:080BA80001B0704700C00640D7
:1008940081B0304988420CD12F4A30490A60304A2D
:1008A40030490A60304A31490A60314A31490A60A4
:1008B4004EE0314988420CD1304A28490A60304A16
:1008C40028490A602F4A29490A602F4A29490A609F
:1008D4003EE02E4988420CD12D4A20490A602D4A17
:1008E40020490A602C4A21490A602C4A21490A609D
:1008F4002EE02B4988420CD12A4A18490A602A4A18
:1009040018490A60294A19490A60294A19490A609A
:100914001EE0284988420CD1274A10490A60274A18
:1009240010490A60264A11490A60264A11490A6098
:100934000EE0254988420BD1244A08490A60244A1A
:1009440008490A60234A09490A60234A09490A6096
:1009540001B0704700A00640710A00002800FF1F84
:10096400C10A00002C00FF1FA90A00003000FF1F6D
:10097400F90900003400FF1F00B00640F50A00002A
:10098400E1090000410A0000590A000000C00640C5
:10099400110B0000290A0000110A0000B90C000024
:1009A40000D006402D0B0000650C0000210D000056
:1009B400390D000000A00E40D90A0000090D000006
:1009C400B10B0000E10B000000B00E408D0A0000E6
:0C09D400F90B0000610B0000490B000053
:1008340085B0CDF800E001900291ADF80C20ADF840
:100844001030BDF81440ADF814400698FFF7B2FE1E
:100854000198FFF765FE02990198FFF7F1FEBDF8D4
:100864000C100198FFF7DAFEBDF810100198FFF79D
:100874002BFFBDF814100198FFF796FE0198FFF7BF
:10088400BDFE0198FFF7C2FEDDF800E005B0704739
:1005B80081B0CDF800E040F2000C83464FEA8C0190
:1005C8000BEB01010968B1F1FF3F11D04FEA8C0331
:1005D8000BEB030109680A460BF13401C9180968D5
:1005E8001046FFF76FFF0CF1010C1FFA8CFCE5E7D2
:0805F800DDF800E001B07047DE
:1004CC0082B0CDF800E080464FEA581202F00702E5
:1004DC00914608F01F04A24693010D4AD3184FF021
:1004EC000102A240019218460A46019900F05CF9FB
:1004FC004FEA0933074AD3184FEA8A029C1808F4CA
:10050C00E06322681A432260DDF800E002B0704715
:08051C0000F00F4000900440C4
:1005240081B01549884203D1012214490A6021E0AF
:100534001349884203D1012212490A601AE0124980
:10054400884203D1012211490A6013E0104988420C
:1005540003D101220F490A600CE00F49884203D1FC
:1005640001220E490A6005E00D49884202D10122A8
:100574000C490A6001B0704700A00640A8069042EA
:1005840000B00640AC06904200C00640B00690425F
:1005940000D00640B406904200A00E4028059042C8
:0805A40000B00E402C0590424E
:1006440085B0CDF800E08046894601AA1046FFF740
:10065400E3FE1B4A904540F2000301D16FF0000312
:10066400184A904540F2000201D16FF0000243EABB
:1006740002020AB1019800E002984FEA0912B0FBA5
:10068400F2F291B292B2130A9BB298F800201A4384
:1006940088F8002008F10103CAB21A7043014FEA36
:1006A4000912B3FBF2F34A0192B29A1AD0B208F1DA
:1006B4000A031A7802431A70DDF800E005B07047A7
:0806C40000A0064000B0064052
:10041C0081B0CDF800E00446FFF7F4FF40F2E8317C
:10042C0000FB01F3194909680A0F1849096801F022
:10043C007061090EC8B21549096801F47001090D03
:10044C00CDB21249096801F47021090CCEB2D1B2B7
:10045C00491C89B259430F462360221D411C89B2A5
:10046C00B7FBF1F1116004F20802691C89B2B7FB09
:10047C00F1F1116004F20C02711C89B2B7FBF1F1BD
:10048C001160DDF800E001B0704700BF448004400B
:0C04100001480068704700BF2400FF1F77
:1006200081B0841C204623786FF0100203EA020296
:1006300022700B0102781A4302700278D0B201B026
:02064000704701
:1006CC0081B001F0020262B1841C204601F00203E9
:1006DC0022781A43227001F0010302781A43027047
:1006EC0006E0841C23786FF0020203EA02022270F7
:0406FC0001B0704792
:0C05AC0081B002780A43027001B0704771
:1006000081B0C21C117841F00401117001B0704733
:1006100081B0C21C117841F00801117001B070471F
:1010480083B0CDF800E000218DF80810031D00F2F0
:10105800080200F20C0105681C6813680A68084950
:1010680002B40293A1B2284693B2BDF80820FFF754
:101078002BFE01B09DF80800DDF800E003B07047D2
:04108800201C000028
:100CD00081B0CDF800E09FB203468DB296B2DDF848
:100CE00004800848FFF7D6FD4446AAB21946B3B2BD
:100CF000044810B480B4FFF79DFD02B0DDF800E0B9
:080D000001B0704700D006406D
:100E1C0083B0CDF800E000218DF80810031D00F21E
:100E2C00080200F20C0105681C6813680A6808497E
:100E3C0002B40293A1B2284693B2BDF80820FFF782
:100E4C0041FF01B09DF80800DDF800E003B07047E9
:040E5C00201C000056
:1011F00081B0CDF800E0002218B90846FFF7CCFD19
:101200000CE0012803D10846FFF7DCFD06E00228C8
:1012100003D10846FFF7ECFD00E00120DDF800E017
:0412200001B0704762
:100D980082B0CDF800E000218DF80410FFF740FF85
:100DA800044A05490A609DF80400DDF800E002B035
:0C0DB800704700BF110B00002000FF1F5F
:100C280081B0CDF800E003460A48FFF72FFE40F2F6
:100C38000002094902B404B440F20002194640F225
:100C480000030448FFF7F2FD02B0DDF800E001B050
:0C0C5800704700BF00C00640B41B000045
:100DC40082B0CDF800E000218DF80410FFF754FF45
:100DD400044A05490A609DF80400DDF800E002B009
:0C0DE400704700BF2D0B00002000FF1F17
:100C7C0081B0CDF800E003460A48FFF705FE40F2CC
:100C8C000002094902B404B440F20002194640F2D1
:100C9C0000030448FFF7C8FD02B0DDF800E001B026
:0C0CAC00704700BF00D00640201C000074
:100DF00082B0CDF800E000218DF80410FFF73EFF2F
:100E0000044A05490A609DF80400DDF800E002B0DC
:0C0E1000704700BF2D0B00002000FF1FEA
:1013A00084B0CDF800E018491848FFF7B5FE01AC4D
:1013B000492020706E2060706920A0707420E07059
:1013C00069202071612060716C20A0716920E0713A
:1013D0007A202072652060726420A0720020E07282
:1013E00001AC03212046FFF71DFF40F6FE07C0F2C7
:1013F0003D0700BF00BF7F1EFDD100BF00BF00BF83
:10140000DDF800E004B07047FC1C00008C1C0000FC
:1011180081B0CDF800E003460846FFF7E3FF184624
:10112800FFF7B0FF0023044A13700023034A13702B
:10113800DDF800E001B070470600FF1F0700FF1F41
:1010EC0081B0026806490A60011D0A6805490A6058
:1010FC0000F208010A6804490A6001B0704700BF99
:0C110C000800FF1F0C00FF1F1000FF1F59
:10108C0081B000F230031A6804490A6003F21C01B3
:10109C000A6803490A6001B0704700BF1400FF1FC3
:0410AC001800FF1F0A
:1012240084B0CDF800E0039000228DF804200D2254
:101234008DF805200A228DF80620039C0022ADF8C3
:101244000820012903D12046FFF730FF33E00229AB
:1012540010D120460278002A0BD9FFF727FFBDF8EA
:101264000820531C9BB2ADF80830039AD4182046CA
:10127400F0E720E003291BD120460278002A0CD98C
:10128400FFF714FFBDF80820531C9BB2ADF80830DB
:10129400039AD21814462046EFE70DF105021046D2
:1012A400FFF704FF0DF106021046FFF7FFFE02E010
:1012B40006228DF804209DF80400DDF800E004B057
:0212C400704771
:1010B00081B0CDF800E00178CCB2A0B2034C246836
:1010C000A047DDF800E001B0704700BF2000FF1F1F
:100A700081B0CDF800E081B20348FFF7ADFEDDF8AC
:0C0A800000E001B0704700BF00A006407D
:1007D80081B0ADF800100146BDF800000C1DFFE720
:1007E8002378C3F3C012002AFAD02278D3B25A1C55
:0A07F800CA1D1146087001B07047D9
:100AF40081B0CDF800E081B20348FFF76BFEDDF86A
:0C0B040000E001B0704700BF00B00640E8
:100B100081B0CDF800E081B20348FFF75DFEDDF85B
:0C0B200000E001B0704700BF00C00640BC
:100B2C0081B0CDF800E081B20348FFF74FFEDDF84D
:0C0B3C0000E001B0704700BF00D0064090
:100AD80081B0CDF800E081B20348FFF779FEDDF878
:0C0AE80000E001B0704700BF00A00E400D
:100A8C0081B0CDF800E081B20348FFF79FFEDDF89E
:0C0A9C0000E001B0704700BF00B00E4049
:1014100086B0CDF800E0FFF7E1FE28B1FFF7AEFEA1
:10142000C1B23A48FFF750FFFFF76AFFC1B2C0B23E
:10143000022821D102AC4120207070206070702001
:10144000A0707220E0706F202071612060716320B5
:10145000A0716820E071692020726E2060726720A0
:10146000A0720020E07202AC8DF804100321204627
:10147000FFF7D8FE9DF80410042923D102AC4E20BA
:1014800020706F2060702020A0706D20E0706F20B1
:101490002071762060716520A0717320E0716D204D
:1014A0002072652060726E20A0727420E0720020AD
:1014B000207302AC8DF8041003212046FFF7B2FE22
:1014C0009DF8041001291DD102AC4D2020706F2021
:1014D00060707620A0706920E0706E202071672017
:1014E00060712020A0716120E0717720207261205E
:1014F00060727920A0720020E07202AC03212046C5
:10150000FFF790FEDDF800E006B070470000FF1F17
:1011DC0081B0CDF800E0FFF775FFDDF800E001B05D
:0211EC0070474A
:1010D00081B0CDF800E0044C2468A047C0B2DDF830
:0C10E00000E001B0704700BF1000FF1FCF
:100AC00081B0CDF800E00348FFF7A4FEDDF800E0B8
:080AD00001B0704700A00640D0
:1008140081B00246101D1346FFE70278C2F340116F
:0E0824000029FAD0D91D0978C8B201B070477A
:100AA80081B0CDF800E00348FFF78AFEDDF800E0EA
:080AB80001B0704700A00640E8
:0E07C80081B0011D0978C1F3401001B07047E7
:1009F80081B0CDF800E00348FFF700FFDDF800E024
:080A080001B0704700A0064098
:0E08040081B0011D0978C1F3801001B070476A
:1009E00081B0CDF800E00348FFF714FFDDF800E028
:0809F00001B0704700B00640A1
:100A400081B0CDF800E00348FFF7BEFEDDF800E01E
:080A500001B0704700B0064040
:100A580081B0CDF800E00348FFF7D0FEDDF800E0F4
:080A680001B0704700B0064028
:100A280081B0CDF800E00348FFF7F0FEDDF800E004
:080A380001B0704700C0064048
:100A100081B0CDF800E00348FFF7D6FEDDF800E036
:080A200001B0704700C0064060
:100CB80081B0CDF800E00348FFF7A0FDDDF800E0C3
:080CC80001B0704700C00640B6
:100C640081B0CDF800E00348FFF7D2FDDDF800E0E5
:080C740001B0704700D00640FA
:100D200081B0CDF800E00348FFF74EFDDDF800E0AC
:080D300001B0704700D006403D
:100D380081B0CDF800E00348FFF760FDDDF800E082
:080D480001B0704700D0064025
:100D080081B0CDF800E00348FFF780FDDDF800E092
:080D180001B0704700A00E407D
:100BB00081B0CDF800E00348FFF706FEDDF800E065
:080BC00001B0704700A00E40D7
:100BE00081B0CDF800E00348FFF70CFEDDF800E02F
:080BF00001B0704700A00E40A7
:100BF80081B0CDF800E00348FFF708FEDDF800E01B
:080C080001B0704700B00E407E
:100B600081B0CDF800E00348FFF72EFEDDF800E08D
:080B700001B0704700B00E4017
:100B480081B0CDF800E00348FFF758FEDDF800E07B
:080B580001B0704700B00E402F
:10117C0081B0CDF800E0FFF7FBFDDDF800E001B039
:02118C007047AA
:100D7C0081B0CDF800E0044C2468A047C0B2DDF887
:0C0D8C0000E001B0704700BF0C00FF1F2A
:1012C80081B00A4A10600A4B1A78821811701A46BF
:1012D8001278521CD2B21A70042A05D10023044A8B
:1012E80013700123034A137001B070471C00FF1FDD
:0812F8000700FF1F0600FF1FA5
:1013000081B0CDF800E015480078012820D10021F7
:1013100012480170124800684FF04001FFF718FDB5
:1013200008B9012015E00E4800680078C0B24FF0FF
:101330004001FFF70DFD08B902200AE008480068E7
:1013400000784FF04001FFF703FD08B9042000E0EA
:101350000020DDF800E001B0704700BF0600FF1F6D
:041360001C00FF1F4F
:100D500081B00091014600980B780278934209D146
:100D60000A7822B90B7802789A1AD0B203E0491CAB
:0A0D7000401CF1E7012001B07047BC
:1015C8008FB072B69C4801909C4802909C4803904A
:1015D8009C4804909C4805909C4F9D4806909D48C7
:1015E80007909D4808909D4809909D480A909D48FD
:1015F8000B909D499D480C909D480D900C9800F0CB
:1016080007000E9001F0010058B94CF2205199489A
:1016180001804DF628119748018040F2D211964872
:1016280001809648007800F0010058B1944800788D
:1016380000F0080028B19248007840F0080190486E
:10164800017021E08F48006840F000518D4801602A
:101658008D48006800F48070B0B98B4801686FF459
:10166800705001EA000040F44071874801608648E4
:10167800006840F4807184480160834801686FF411
:101688000070014080480160AA21804801700C98D0
:1016980000F0100060B97E4801786FF060000140EA
:1016A8007B480170FFE77B4800780128FBD11DE0EB
:1016B8000C9800F01000C8B10D997748814208D9FC
:1016C800602173480170FFE7724800788028FBD1D9
:1016D8000BE06F4801786FF0600001406C480170C2
:1016E800FFE76C4800780128FBD1FFE704996B48B5
:1016F80001606B4801686FF440200140029800F4D3
:101708004020014366480160664801686FF4403034
:101718000140039800F440300143624801600E9A8A
:10172800002A40F2000101D16FF00001012A40F2C5
:10173800000001D16FF000000143022A40F20000CE
:1017480001D16FF0000041EA0000002800F0C480D9
:10175800019800F08000002840F2000201D06FF0EC
:101768000002079800F04000002840F2000101D074
:101778006FF000010A9800F00300002840F2000012
:1017880001D16FF0000001EA000042EA0000A0B1B8
:101798004548006840F400714348016043480168C7
:1017A800434801404148016007F0040028B141481E
:1017B80001683F4801403F48016009993E4801706F
:1017C80005993E480170059800F0040040B1FFE714
:1017D8003B48007800F010000028F9D03A4607E0AE
:1017E800FFE73748007800F010000028F9D13A46A2
:1017F8003448007800F0BF01C9B202F0FD0001438F
:1018080030480170069800F0E0012F48007800F099
:101818001F00C0B201432C48017001992B48017088
:101828000A992B4801700E98022854D1254800784F
:1018380040F0020123484DE00000000000000000D5
:10184800000000000000010004000000000000008B
:10185800000000000000000000000000020000007E
:101868000000000000000000000000000000000070
:10187800C0D401000E2005400020054000F00740BC
:1018880002D007403C80044010D0034000E00740ED
:1018980001E0074003E0074080380100448004402D
:1018A800007004400480044038800440489004409C
:1018B800FFF8FFFE4C9004400840064000400640F8
:1018C80006400640014006400340064000500640DE
:1018D8000C40064001707EE0019800F0800000286E
:1018E80040F2000101D06FF000010A9800F00300F7
:1018F800002840F2000001D16FF0000041EA00002A
:10190800A0B19948006840F4007197480160974871
:101918000168974801409548016007F0040028B124
:101928009448016892480140924801600999924898
:1019380001709248007800F0BF01C9B207F0FD00BD
:1019480001438E48017001998D4801700A998D48AC
:1019580001700E98072805D1059840F080018A4843
:10196800017002E005998848017007F0040000281A
:1019780040F2000101D06FF000010A9800F0030066
:10198800002840F2000001D16FF0000001EA0000D9
:1019980028B17E48007800F002000028F9D00598A8
:1019A80000F0040030B17948007800F010000028F9
:1019B800F9D005E07548007800F010000028F9D14A
:1019C800069800F0E0017248007800F01F00C0B2ED
:1019D80001436F480170079800F0BF016D4801701E
:1019E800089800F0BF016C480170079800F04000AB
:1019F80028B16848007840F04001664801700E98A8
:101A0800052806D15D48007840F002015B48017066
:101A180024E00E98062840F2000101D16FF0000181
:101A2800072840F2000001D16FF0000041EA0000F1
:101A3800A0B15948007840F0400157480170534818
:101A4800007800F040000028F9D00E98072805D14A
:101A58004D48007800F03F014B4801700E9800286F
:101A680040F2000101D16FF00001032840F20000AC
:101A780001D16FF0000041EA0000002829D0434856
:101A8800007800F00C000028F9D13748006840F0D1
:101A9800010135480160002140480160802140482B
:101AA800016005213F4801604FF001013C48016099
:101AB8003B48006800F080000028F9D00021384831
:101AC8000160294801686FF0010001402648016063
:101AD8003DE00E98012840F2000101D16FF00001AD
:101AE800022840F2000001D16FF0000041EA000036
:101AF80030B12648007800F00C000428F9D126E01F
:101B08000E9A042A40F2000101D16FF00001062A62
:101B180040F2000001D16FF000000143052A40F2B5
:101B2800000001D16FF0000041EA000030B1174811
:101B3800007800F00C000828F9D108E00E98072872
:101B480005D11248007800F00C000C28F9D116488D
:101B5800006800F0F0010B9800F00F0001431248F4
:101B680001600FB0704700BF3880044048900440BF
:101B7800FFF8FFFE4C900440084006400140064034
:101B8800005006400C400640004006400640064013
:101B98000340064004400640054006400800044053
:0C1BA80000000440040004404880044099
:1015940081B002490248016001B07047C0D4010023
:0415A4002400FF1F01
:0815600081B0FEE701B0704705
:1015680081B072B60849086840F47000086000BF8E
:1015780000BF00BF00BFF1EE100A40F44000E1EEEA
:0C158800100A62B601B0704788ED00E068
:101D1C0000B5DFF810B0DFF810A0FFF71DFB00BD19
:0C1D2C00704700BF0000FF1F3800FF1FC1
:100400000000000000000000FFFFFFFFFEFDFFFFF7
:101BB4006303000062030000FFFFFFFF000000005A
:101BC4000000000000000000000000000000000011
:101BD4000000000000000000000000000000000001
:101BE400000000000000080000000800FFFFFFFFE5
:101BF40000000000000000000000000000000000E1
:101C040000000000000000000000000000000000D0
:0C1C1400000000000000000000000000C4
:101C20005103000050030000FFFFFFFF0000000011
:101C300000000000000000000000000000000000A4
:101C40000000000000000000000000000000000094
:101C5000000000000000080000000800FFFFFFFF78
:101C60000000000000000000000000000000000074
:101C70000000000000000000000000000000000064
:0C1C800000000000000000000000000058
:101C8C00FFFFFFFFFFFFFFFFFFFFFFFFFFFFFFFF58
:101C9C00FFFFFFFFFFFFFFFFFFFFFFFFFFFFFFFF48
:101CAC00FFFFFFFFFFFFFFFFFFFFFFFFFFFFFFFF38
:101CBC00FFFFFFFFFFFFFFFFFFFFFFFFFFFFFFFF28
:101CCC00FFFFFFFFFFFFFFFFFFFFFFFFFFFFFFFF18
:101CDC00FFFFFFFFFFFFFFFFFFFFFFFFFFFFFFFF08
:101CEC008025000000000000000000000000000043
:0C1CFC00110B0000290A0000110A000072
:061D0800404E0D0A000030
:061D0E00404C0D0A00002C
:061D140040430D0A00002F
:00000001FF
