:020000040800F2
:10000000FCFF002019160000CD140000CD140000E4
:10001000CD140000CD140000CD140000CD1400005C
:10002000CD140000CD140000CD140000CD1400004C
:10003000CD140000CD140000CD140000CD1400003C
:10004000CD140000CD140000CD140000CD1400002C
:10005000CD140000CD140000CD140000CD1400001C
:10006000CD140000CD140000CD140000CD1400000C
:10007000CD140000CD140000CD140000CD140000FC
:10008000CD140000CD140000CD140000CD140000EC
:10009000CD140000CD140000CD140000CD140000DC
:1000A000CD140000CD140000CD140000CD140000CC
:1000B000CD140000CD140000CD140000CD140000BC
:1000C000CD140000CD140000CD140000CD140000AC
:1000D000CD140000CD140000CD140000CD1400009C
:1000E000CD140000CD140000CD140000CD1400008C
:1000F000CD140000CD140000CD140000CD1400007C
:10010000CD140000CD140000CD140000CD1400006B
:10011000CD140000CD140000CD140000CD1400005B
:10012000CD140000CD140000CD140000CD1400004B
:10013000CD140000CD140000CD140000CD1400003B
:10014000CD140000CD140000CD140000CD1400002B
:1001500083B0CDF800E000F0FF031A09104603F069
:100160000F02134614E0194A02921FE0184A029245
:100170001CE0184A029219E0174A029216E0174A48
:10018000029213E0164A029210E0164A02920DE023
:100190000028E8D00128E9D00228EAD00328EBD0D3
:1001A0000428ECD00528EDD00628EED0012212B2AA
:1001B0009A40ADF8042002980A46BDF8041000F0F9
:1001C00085FADDF800E003B0704700BF0008014089
:1001D000000C0140001001400014014000180140D3
:1001E000001C01400020014001480068704700BF2A
:1001F0003C00002081B0CDF800E0012252B23E491F
:100200000A6000F268010B686FF0006103EA010206
:10021000144603F00061C90E0B4602F00041B1F133
:10022000004F02D135490A6801E035490A6804F4F3
:100230007021090C0E464FF6FF7104EA01010D46CC
:1002400004F44011B1F5401F0DD16FF0706102EA66
:1002500001010E462A490A686FF070610A40284978
:100260000A60324616E004F48011B1F5801F09D10E
:100270004FF00301B140C94302EA010141F070614E
:100280000A4607E0610D090105FA01F1C9430A4078
:1002900042F070622BB1610D090105FA01F10A43C8
:1002A000FFE704F00041B1F1004F02D113490A60A9
:1002B00001E013490A6040F2000A81464FEA8A01D0
:1002C00009EB01010968B1F1FF3F10D009F13401D8
:1002D0004FEA8A03C91809680A4609EB030109684D
:1002E00008461146FFF734FF0AF1010AE6E7DDF898
:1002F00000E001B0704700BF000342421C00014013
:100300000400014082B0CDF800E003461946019197
:10031000FFF76AFF40F2E83100FB01F201990A6041
:100320001F490978C1F30311C8B21E49091808789A
:10033000C0B21A1D1968C140116019490988C1F37A
:10034000022188B2174909180878C0B203F20802DE
:10035000191D0968C140116011490988C1F3C22102
:1003600088B2104909180878C0B203F20C02191DAE
:100370000968C14011600A490988C1F3813188B216
:10038000094909180978C8B203F2100203F20C01F6
:100390000968B1FBF0F11160DDF800E002B07047D0
:1003A000041002400D1800004E18000081B01949D9
:1003B00000EA0101084600220EE0042022E00820A5
:1003C00020E010201EE020201CE040201AE08020C9
:1003D00018E040F2001015E00F498842EDD00F49B7
:1003E0008842ECD00E498842EBD00E498842EAD0D0
:1003F0000D498842E9D00D498842E8D00C4988422D
:10040000E7D010460B49096841EA000209490A6031
:1004100001B0704700FCFFFF00080140000C0140E4
:10042000001001400014014000180140001C014070
:10043000002001401810024081B00268C2F3401150
:1004400001B9FAE7011D096888B201B07047FFFFE2
:1004500089B0CDF800E0834698B28C46BDF82410F0
:100460000A9E04ACADF80410ADF808002046FFF772
:1004700049FFBDF80800BDF80410644CA34512D133
:1004800001256DB2624C2560624D634C2560634D61
:10049000634C2560634D644C2560644D644C25605D
:1004A000079C039456E0634CA34512D101256DB21D
:1004B000614C2560614D584C2560614D584C25605C
:1004C000604D594C2560604D594C2560069C039445
:1004D00040E05E4CA34512D101256DB25C4C256015
:1004E0005C4D4D4C25605C4D4D4C25605B4D4E4C3C
:1004F00025605B4D4E4C2560069C03942AE0594CC8
:10050000A34512D101256DB2574C2560574D424C81
:100510002560574D424C2560564D434C2560564D45
:10052000434C2560069C039414E0544CA34511D120
:1005300001256DB2524C2560524D374C2560524D0D
:10054000374C2560514D384C2560514D384C256055
:10055000069C0394ADF80410ADF808003046FFF790
:1005600049FEBDF80800BDF804100BF11005002489
:100570002C600BF110052C680C432C600BF10C0562
:1005800000242C6018B140F4806080B2FFE70BF1CA
:100590000C052C6804432C600BF10C060125346813
:1005A00065F34D3434600BF10C060125346865F3B6
:1005B000C30434600BF10C060125346865F3820432
:1005C00034600BF1140500242C60039D192465434D
:1005D0004FEA8C04B5FBF4F76424B7FBF4F426016E
:1005E000350964246C433C1B240104F23205642465
:1005F000B5FBF4F404F00F0446EA04040BF108051B
:10060000A4B22C60DDF800E009B07047003801406A
:1006100038034242CD09000040000020B509000027
:1006200044000020D908000048000020C108000054
:100630004C00002000440040C40342426109000015
:10064000F1080000490900000909000000480040C5
:10065000C80342427D090000050A0000190B000092
:10066000010B0000004C0040CC03424299090000FD
:10067000310B0000490B0000C10A0000005000408F
:10068000D0034242E9090000A90A0000910A0000D3
:10069000790A000081B0ADF800100146BDF80000F5
:1006A0000B68C3F3C01202B9FAE70A1D106001B06B
:1006B0007047FFFF81B00168C1F3401001B070477F
:1006C00081B00168C1F3801001B0704781B0CDF8EE
:1006D00000E08CB21546774B00EA03031E4618462D
:1006E000FFF764FEB4F1FF0F0CD1734B9D4203D1B1
:1006F0004FF033333360D9E0422D03D14FF0443310
:100700003360D3E04FF6FF739C4214D16A4B9D4295
:1007100007D14FF033333360341D4FF03333236050
:10072000C4E0422D07D14FF044333360341D4FF005
:1007300044332360BAE00021002005F001030BB12F
:1007400000211DE005F0020333B105F4C0730BB1C5
:10075000082100E0042113E005F0040333B105F0A3
:1007600020030BB1042100E0002109E005F008039B
:1007700033B105F020030BB10C2100E00821FFE7A5
:100780004E4B05EA03030BB1032009E005F40073A7
:100790000BB1022004E005F480630BB10120FFE7F8
:1007A00005F00C030BB10143FFE704F0FF039BB21C
:1007B000002B3BD0376800201FFA84F832462E46C3
:1007C00008282CD24FF0010303FA00F408EA0403CE
:1007D000A34222D185004FF00F03AB40DB4307EA71
:1007E000030401FA05F344EA03031D4606F481738A
:1007F000B3F5817F05D102F214044FF00103834069
:10080000236006F08203822B05D102F210044FF020
:100810000103834023602F46FFE7401CD0E71760A9
:100820001FFA88F00F463146164602E00F46294669
:10083000A0B2B0F1FF0F39D9331DD3F800800022E8
:10084000082A30D202F208044FF0010303FA04F43C
:1008500000EA0403A34224D195004FF00F03AB40FC
:10086000DB4308EA030807FA05F348EA030801F442
:100870008173B3F5817F07D106F2140502F20804F3
:100880004FF00103A3402B6001F08203822B07D1BC
:1008900006F2100502F208044FF00103A3402B609A
:1008A000FFE7521CCCE7331DC3F80080DDF800E001
:1008B00001B0704700FCFFFF1400080000080800AA
:1008C00081B0CDF800E00348FFF7FAFEDDF800E064
:1008D00001B070470038014081B0CDF800E0034816
:1008E000FFF7E8FEDDF800E001B070470038014096
:1008F00081B0CDF800E00348FFF79EFDDDF800E091
:1009000001B070470044004081B0CDF800E00348DA
:10091000FFF7D6FEDDF800E001B07047004400406C
:1009200081B0CDF800E0019D2C4610B408B493B21C
:100930008AB201460348FFF78BFD02B0DDF800E004
:1009400001B070470038014081B0CDF800E00348A5
:10095000FFF7B0FEDDF800E001B070470044004052
:1009600081B0CDF800E081B20348FFF793FEDDF8D7
:1009700000E001B0704700BF0044004081B0CDF8F6
:1009800000E081B20348FFF785FEDDF800E001B02A
:10099000704700BF0048004081B0CDF800E081B250
:1009A0000348FFF777FEDDF800E001B0704700BFB5
:1009B000004C004081B0CDF800E00348FFF73CFD5B
:1009C000DDF800E001B070470038014081B0CDF89B
:1009D00000E081B20348FFF75DFEDDF800E001B002
:1009E000704700BF0038014081B0CDF800E081B20F
:1009F0000348FFF74FFEDDF800E001B0704700BF8D
:100A00000050004081B0CDF800E00348FFF714FD2E
:100A1000DDF800E001B070470048004081B0CDF83B
:100A200000E0019D2C4610B408B493B28AB201468E
:100A30000348FFF70DFD02B0DDF800E001B070479C
:100A40000048004081B0CDF800E0044A89B2FFF7C9
:100A50003DFEDDF800E001B0704700BF1400080063
:100A600081B0CDF800E04FF0420289B2FFF72EFED0
:100A7000DDF800E001B0704781B0CDF800E0034838
:100A8000FFF71EFEDDF800E001B0704700500040A7
:100A900081B0CDF800E00348FFF70CFEDDF800E080
:100AA00001B070470050004081B0CDF800E003482D
:100AB000FFF7C2FCDDF800E001B0704700500040D5
:100AC00081B0CDF800E00348FFF7FAFDDDF800E063
:100AD00001B07047004C004081B0CDF800E0019DAE
:100AE0002C4610B408B493B28AB201460348FFF70B
:100AF000AFFC02B0DDF800E001B0704700440040F8
:100B000081B0CDF800E00348FFF7DAFDDDF800E042
:100B100001B070470048004081B0CDF800E00348C4
:100B2000FFF7C8FDDDF800E001B070470048004065
:100B300081B0CDF800E00348FFF77EFCDDF800E06F
:100B400001B07047004C004081B0CDF800E0034890
:100B5000FFF7B0FDDDF800E001B07047004C004049
:100B600081B0CDF800E0044C2468A047C0B2DDF8A5
:100B700000E001B0704700BF6800002081B0CDF8F0
:100B800000E0044C2468A047C0B2DDF800E001B0EA
:100B9000704700BF6000002081B0CDF800E0094937
:100BA00002B440F2000340F2000240F20001FFF7FD
:100BB000B7FE01B0044A05490A600020DDF800E0F4
:100BC00001B0704710170000CD0900003800002068
:100BD00081B0CDF800E0094902B440F2000340F2D0
:100BE000000240F20001FFF777FF01B0044A054917
:100BF0000A600020DDF800E001B070473816000000
:100C0000610900003800002081B0CDF800E0A9E0C3
:100C1000012905D140F220016548FFF721FF04E0DA
:100C200040F220016248FFF70DFFBBE0012905D12A
:100C300040F208015F48FFF713FF04E040F20801AB
:100C40005C48FFF7FFFEADE0012905D144F2000149
:100C50005948FFF705FF04E044F200015648FFF74A
:100C6000F1FE9FE0012905D140F200415148FFF714
:100C7000F7FE04E040F200414E48FFF7E3FE91E04A
:100C8000012905D140F600014A48FFF7E9FE04E0DA
:100C900040F600014748FFF7D5FE83E0012905D162
:100CA00041F200014348FFF7DBFE04E041F200019E
:100CB0004048FFF7C7FE75E0012905D141F2000168
:100CC0003D48FFF7CDFE04E041F200013A48FFF74E
:100CD000B9FE67E0012905D140F600013648FFF76B
:100CE000BFFE04E040F600013348FFF7ABFE59E0D9
:100CF000012905D140F240012F48FFF7B1FE04E081
:100D000040F240012C48FFF79DFE4BE0012905D140
:100D100040F220012848FFF7A3FE04E040F2200142
:100D20002548FFF78FFE3DE0012905D140F2400143
:100D30002248FFF795FE04E040F240011F48FFF70C
:100D400081FE2FE0012905D140F280011B48FFF709
:100D500087FE04E040F280011848FFF773FE21E0AF
:100D6000012020E000283FF453AF01283FF45EAF9C
:100D700002283FF469AF03283FF474AF04283FF41E
:100D80007FAF05283FF48AAF06283FF495AF0728C8
:100D9000A0D00828ACD00928B8D00A28C4D00B2885
:100DA000D0D0DDE70020DDF800E001B0704700BFE3
:100DB000000801400010014000140140000C0140F7
:100DC00081B0CDF800E0094902B440F2000340F2DE
:100DD000000240F20001FFF77FFE01B0044A05491E
:100DE0000A600020DDF800E001B07047381600000E
:100DF000610900003800002081B0CDF800E0A9E0D2
:100E0000012905D140F210016548FFF729FE04E0F1
:100E100040F210016248FFF715FEBBE0012905D141
:100E200040F204015F48FFF71BFE04E040F20401BA
:100E30005C48FFF707FEADE0012905D142F2000151
:100E40005948FFF70DFE04E042F200015648FFF753
:100E5000F9FD9FE0012905D140F200415148FFF71B
:100E6000FFFD04E040F200414E48FFF7EBFD91E04A
:100E7000012905D140F600014A48FFF7F1FD04E0E1
:100E800040F600014748FFF7DDFD83E0012905D169
:100E900041F200014348FFF7E3FD04E041F20001A5
:100EA0004048FFF7CFFD75E0012905D140F201016F
:100EB0003B48FFF7D5FD04E040F201013848FFF759
:100EC000C1FD67E0012905D140F200413648FFF736
:100ED000C7FD04E040F200413348FFF7B3FD59E09D
:100EE000012905D140F200212F48FFF7B9FD04E0A8
:100EF00040F200212C48FFF7A5FD4BE0012905D168
:100F000040F200112848FFF7ABFD04E040F2001169
:100F10002548FFF797FD3DE0012905D140F240014A
:100F20002248FFF79DFD04E040F240011F48FFF713
:100F300089FD2FE0012905D140F280011B48FFF710
:100F40008FFD04E040F280011848FFF77BFD21E0AF
:100F5000012020E000283FF453AF01283FF45EAFAA
:100F600002283FF469AF03283FF474AF04283FF42C
:100F70007FAF05283FF48AAF06283FF495AF0728D6
:100F8000A0D00828ACD00928B8D00A28C4D00B2893
:100F9000D0D0DDE70020DDF800E001B0704700BFF1
:100FA000000801400010014000140140000C014005
:100FB00081B0CDF800E00B4D00F20C010C6800F29E
:100FC00008010B68011D0A680168084691B29AB2CF
:100FD000A3B220B4FFF722FD01B00020DDF800E04D
:100FE00001B07047A416000081B0CDF800E00949B7
:100FF00002B440F2000340F2000240F20001FFF7A9
:101000000DFD01B0044A05490A600020DDF800E04A
:1010100001B07047A41600007D09000038000020D0
:1010200081B0CDF800E00B4D00F20C010C6800F22D
:1010300008010B68011D0A680168084691B29AB25E
:10104000A3B220B4FFF748FD01B00020DDF800E0B6
:1010500001B070473816000000F230031A680449E6
:101060000A6003F21C010A6802490A60704700BF67
:10107000580000205C00002081B0CDF800E001782D
:10108000CCB2A0B2034C2468A0470020DDF800E0F9
:1010900001B070473800002081B0009101460098EF
:1010A0000B780278934209D10A7822B90B7802783A
:1010B0009A1AD0B203E0491C401CF1E7012001B0AC
:1010C0007047FFFF026806490A60011D0A6805496A
:1010D0000A6000F208010A6803490A60704700BF0D
:1010E00064000020680000206000002081B0CDF87E
:1010F00000E015480078012820D100211248017035
:10110000124800684FF04001FFF7C6FF08B9012000
:1011100015E00E4800680078C0B24FF04001FFF7BC
:10112000BBFF08B902200AE00848006800784FF0C9
:101130004001FFF7B1FF08B9042000E00020DDF80E
:1011400000E001B0704700BF5400002050000020B4
:1011500081B0CDF800E05FFA81F95FFA82FA0FE022
:101160005FFA8AF15FFA89F0FFF746FE0DE05FFA59
:101170008AF15FFA89F0FFF747FD06E0012004E0FD
:101180000028EDD00128F2D0F8E7DDF800E001B04A
:101190007047FFFF81B0CDF800E009E00846FFF797
:1011A00007FF0AE00846FFF73BFF06E0012004E0E6
:1011B0000028F3D00128F5D0F8E7DDF800E001B011
:1011C0007047FFFF81B0CDF800E003460846FFF707
:1011D00079FF1846FFF740FF0023044A13700023ED
:1011E000034A1370DDF800E001B07047540000209E
:1011F0003700002081B0CDF800E0FFF7BFFCDDF83C
:1012000000E001B07047FFFF83B0CDF800E0024678
:1012100010460D228DF808200A228DF809201FE0C3
:10122000FFF72AFF23E002782AB10190FFF724FF9D
:101230000198401CF7E71AE002782AB10190FFF705
:101240001BFF0198401CF7E702AA1046FFF714FFA6
:101250000DF109021046FFF70FFF08E0062007E036
:101260000029DDD00129DED00229E5D0F6E70020F3
:10127000DDF800E003B07047094A1060094B1A78A6
:10128000821811701A461278521CD2B21A70042AAF
:1012900005D10023034A13700123034A13707047DA
:1012A00050000020370000205400002081B0CDF80D
:1012B00000E011E00846FFF797FE16E00846FFF74A
:1012C00087FC12E00846FFF767FC0EE00846FFF7D0
:1012D00077FD0AE0012008E00028EBD00128EDD0DE
:1012E0002028EFD03028F1D0F4E7DDF800E001B09D
:1012F0007047FFFF81B0CDF800E0FFF731FCDDF86B
:1013000000E001B07047FFFF81B01548006840F071
:101310000101134801601349134801601048016836
:10132000124801400E4801600D4801686FF48020AA
:1013300001400B4801600C4801686FF4FE00014059
:1013400009480160064801686FF0A0500140044858
:1013500001604FF000010648016001B0704700BF16
:10136000001002400000FFF004100240FFFFF6FEF4
:101370002C10024082B0CDF800E0FFF73BFF28B10F
:10138000FFF7B8FFC1B21048FFF776FFFFF7AEFED8
:101390008DF80400022803D10C480221FFF734FF26
:1013A0009DF80400042803D109480221FFF72CFF0F
:1013B0009DF80400012803D106480221FFF724FF0D
:1013C000DDF800E002B07047310000200C00002082
:1013D000180000202500002081B0CDF800E0012297
:1013E00000210020FFF7B4FE012207210020FFF7B3
:1013F000AFFE0C4801460020FFF7CCFE42F28051C0
:101400000120FFF753FF44F67F77C0F2120700BFB9
:1014100000BF7F1EFDD100BF00BF00BFDDF800E0B0
:1014200001B070472018000081B0CDF800E00B49F2
:101430000B48FFF7C7FE0B480221FFF7E5FE44F615
:101440007F77C0F2120700BF00BF7F1EFDD100BF33
:1014500000BF00BFDDF800E001B0704730180000A9
:101460007C1700000000002081B01CF8019B0BF8E5
:10147000019BBBEB0A0FF8D101B0704781B04FF070
:1014800000094FF0000CBDEB0A0F04DCBDEB0B0FA5
:1014900001DBD446EA464BF8049BBBEB0A0FFAD1BA
:1014A000BCEB0A0F05DDE246D9F800B00BF1040BE6
:1014B000F1E701B07047FFFF81B0024902480160C7
:1014C00001B07047401901003C00002081B0FEE7E8
:1014D00001B0704781B0CDF800E0464A464B474C1A
:1014E00047494BF68030814206D94648006840F0B3
:1014F00002014448016011E045F6C050814206D91E
:101500004048006840F001013E48016006E03D4867
:1015100001686FF0070001403A480160FFF7F4FEF0
:101520003948036039480460394802EA0001394803
:10153000016002F0010040B119463648006800F031
:101540000200002800D1F8E700E0194602F48030DC
:1015500040B10B462F48006800F40030002800D14D
:10156000F8E700E00B4602F0805068B129480068B7
:1015700040F08051274801602648006800F0005084
:10158000002800D1F8E7FFE702F0806078B1214839
:10159000006840F080611F48016011461A461D48EE
:1015A000006800F00060002800D1F8E701E0114673
:1015B0001A4601F0807070B11648006840F08071E2
:1015C0001448016011461348006800F0007000B92B
:1015D000F9E70A46FFE70C48006800F00C019000AC
:1015E00000F00C00814200D0F5E7DDF800E001B02A
:1015F000704700BF8100010502841D004406010000
:101600004019010000200240041002402C1002404A
:10161000FFFF0F0000100240FFF75CFF00F05AF9D7
:10162000FFF74AFF00F016F9FFF7D6FEFFF7FCFEC2
:10163000FFF7A0FEFCE7FEE73500000036000000E3
:10164000FFFFFFFF0000000000000000000000009E
:10165000000000000000000000000000000000008A
:10166000000000000000000000000000180800005A
:101670001800000000000000000000000000000052
:10168000000000000000000000000000000000005A
:10169000000000000000000000000000000000004A
:1016A000080000083800000039000000FFFFFFFFBD
:1016B000000000000000000000000000000000002A
:1016C000000000000000000000000000000000001A
:1016D00000000000000000001808000018000000D2
:1016E00000000000000000000000000000000000FA
:1016F00000000000000000000000000000000000EA
:10170000000000000000000000000000300014088D
:10171000090000000A000000FFFFFFFF00000000BA
:1017200000000000000000000000000000000000B9
:1017300000000000000000000000000000000000A9
:101740000000000018080000180000000000000061
:101750000000000000000000000000000000000089
:101760000000000000000000000000000000000079
:10177000000000000000000004000000FFFFFFFF69
:10178000FFFFFFFFFFFFFFFFFFFFFFFFFFFFFFFF69
:10179000FFFFFFFFFFFFFFFFFFFFFFFFFFFFFFFF59
:1017A000FFFFFFFFFFFFFFFFFFFFFFFFFFFFFFFF49
:1017B000FFFFFFFFFFFFFFFFFFFFFFFFFFFFFFFF39
:1017C000FFFFFFFFFFFFFFFFFFFFFFFFFFFFFFFF29
:1017D000FFFFFFFFFFFFFFFFFFFFFFFF496E697481
:1017E00069616C697A656400417070726F616368E9
:1017F000696E67004E6F206D6F7665736D656E74F0
:10180000004D6F76696E6720617761790000000096
:1018100000010203040102030406070809FFFFFF99
:101820008025000000000000000000000000000013
:101830007D090000050A0000190B0000404E0D0A4A
:10184000000040430D0A0000404C0D0A0000020455
:101850000608FFFF00B5DFF814B0DFF814A0DFF8CA
:1018600014C0FFF701FE00BD704700BF000000205C
:1018700031000020DC170000FFFFFFFFFFFFFFFF2C
:10188000FFFFFFFFFFFFFFFFFFFFFFFFFFFFFFFF68
:10189000FFFFFFFFFFFFFFFFFFFFFFFFFFFFFFFF58
:1018A000FFFFFFFFFFFFFFFFFFFFFFFFFFFFFFFF48
:1018B000FFFFFFFFFFFFFFFFFFFFFFFFFFFFFFFF38
:1018C000FFFFFFFFFFFFFFFFFFFFFFFFFFFFFFFF28
:1018D000FFFFFFFF00B5DFF810B0DFF810A0FFF743
:1018E000CDFD00BD704700BF000000206C0000204F
:00000001FF
