:10000000FCFF0020791600003116000031160000B8
:1000100031160000311600003116000031160000C4
:1000200031160000311600003116000031160000B4
:1000300031160000311600003116000031160000A4
:100040003116000031160000311600003116000094
:100050003116000031160000311600003116000084
:100060003116000031160000311600003116000074
:100070003116000031160000311600003116000064
:100080003116000031160000311600003116000054
:100090003116000031160000311600003116000044
:1000A0003116000031160000311600003116000034
:1000B0003116000031160000311600003116000024
:1000C0003116000031160000311600003116000014
:1000D0003116000031160000311600003116000004
:1000E00031160000311600003116000031160000F4
:1000F00031160000311600003116000031160000E4
:1001000082B01748006800F4E02114E0154801901F
:1001100023E01548019020E0144801901DE01448A8
:1001200001901AE01348019017E01348019014E081
:100130000020019011E00029E8D0B1F5803FE8D01F
:10014000B1F5003FE8D0B1F5403FE8D0B1F5802FE0
:10015000E8D0B1F5A02FE8D0EAE7019802B07047E7
:100160000404014060E31600C0C62D00808D5B00D2
:10017000001BB70000366E01006CDC0281B0074A3C
:1001800007490A600749096841EA000205490A600F
:10019000012203490A6001B0704700BF5A6900009C
:1001A000000401405004014081B0012109B28140A6
:1001B00009B208B201B0704781B0CDF800E0024644
:1001C0000846FFF7F1FFC3B271E0424A126802F03D
:1001D0000102D2B140F20100FFF7D0FF3D4A1268A0
:1001E00002F001028AB13C4A126802F400422AB1CC
:1001F0004FF4FA3292FBF3F2104666E048F2000246
:10020000B2FBF3F292B290B25FE0344A1268B2FBF2
:10021000F3F2104659E02F4A126802F00202D2B1FE
:1002200040F20200FFF7AAFF2A4A126802F0020217
:100230008AB1294A126802F400422AB14FF4FA3214
:1002400092FBF3F2104640E048F20002B2FBF3F2F8
:1002500092B290B239E0224A1268B2FBF3F2104631
:1002600033E0204A1268B2FBF3F210462DE01A4A3E
:10027000126802F400422AB14FF4FA3292FBF3F210
:10028000104622E048F20002B2FBF3F292B290B2C2
:100290001BE0FFF735FFB0FBF3F2104615E0124A02
:1002A0001268B2FBF3F210460FE000200DE0002AC6
:1002B0003FF48BAF052AAED0012AD2D0022AD6D085
:1002C000032AE6D0042AEAD0EFE7DDF800E001B027
:1002D000704700BF48040140300401404C0000203A
:1002E00050000020400000204400002082B0CDF8E3
:1002F00000E004462849096801F4E061090A08465B
:100300002549096801F0E061090E0A46214601917C
:100310001146FFF751FF019908601F49096801F074
:100320007001090908461C49096801F4E001090D3A
:100330000A4604F2080101911146FFF73DFF0199B9
:1003400008601549096801F0700109090846124959
:10035000096801F0E041090F0A4604F20C0101911D
:100360001146FFF729FF019908600B49096801F060
:10037000070108460849096801F4E021090C0A460A
:10038000211D01911146FFF717FF01990860DDF863
:1003900000E002B0704700BF0804014082B08DED5C
:1003A000010A9DED010AB5EEC00AF1EE10FA0ADB72
:1003B000DDED010AB7EE000AF4EEC00AF1EE10FA24
:1003C00001DA012100E0002189B9DDED010ABFEE6B
:1003D000000AF4EEC00AF1EE10FA07DD9DED010A05
:1003E000B5EEC00AF1EE10FA00DC00E008E04FF0D4
:1003F000000100EE101A00ED000A9DED010A23E055
:1004000001A90968C90D01F0FF017F3989B21829D6
:1004100008D99DED010A00ED000A4FF0000100EE41
:10042000101A11E09DED010ABDEE400A10EE101AFF
:1004300000EE101AB8EEC00A00ED000A50ED000AF6
:100440009DED010A30EE600A02B0704781B002886B
:1004500002F0C00292B2920992B290B20AB90020A0
:100460000EE0012802D10A68104609E0022802D0F5
:10047000032800D004E001F20C0212681046FFE7E6
:1004800001B0704781B031B903884DF6FF7203EABD
:100490000202028002E002880A43028001B0704733
:1004A00081B0B1F5006F03D102880A43028005E0F4
:1004B00003884FF2FF7203EA0202028001B0704724
:1004C00081B0018841F00101018001B07047FFFF58
:1004D00081B003884FF63F7203EA0202028002886D
:1004E0000A43028001B0704781B019E0038847F6E3
:1004F000FF7203EA0202028019E0028842F400421D
:10050000028002880A43028011E0028842F400421D
:10051000028003884BF6FF7203EA0202028006E0C3
:100520000029E3D0B1F5804FE7D00029EDD001B02C
:100530007047FFFF88B0CDF800E005460E4604AADC
:100540001046FFF7D3FE04AA11462846FFF77EFFA8
:1005500000EE900AF8EE600A00EE106AB8EE400A6B
:1005600080EE800AB0EE401A01AA1046FFF716FF8F
:10057000DDED010AFCEE600A10EE902A92B291B213
:10058000414A00EE902A20EE200ABCEE400A10EE0E
:10059000100A80B205F2080423884FF6FE7203EABF
:1005A0000202228010292ED905F208031A8842F08F
:1005B00001021A80B3EE000A81EE000ABCEE400A86
:1005C00010EE102A92B2ADF80820B3EE000AC1EE88
:1005D000000AB3EE000A81EE000ABCEE400A10EEFB
:1005E000102A92B200EE102AB8EE400A70EEC00A4D
:1005F000B3EE000A20EE800ABCEE400A10EE102A8C
:1006000092B2ADF80A2020B90022ADF80C2028469D
:1006100016E001242946242C11D263001B4AD2186B
:100620001288904208D2621E12B25300184AD218A1
:100630001288ADF80C2002E0641CE4B2EBE7084637
:10064000831D00221A80841D2388BDF8082043EAF8
:100650000202228000F208031A8802F001021A80C6
:1006600000F20804BDF80C2013029BB2BDF80A206A
:10067000120192B213439BB222881A432280DDF802
:1006800000E008B0704700BF00401C46201B00007F
:10069000D81A000081B002884FF6FE7102EA01010B
:1006A000018001B07047FFFF81B0B1F5807F04D1B8
:1006B000028842F48072028005E003884FF6FF62F0
:1006C00003EA0202028001B07047FFFF81B0B1F57A
:1006D000805F03D102880A43028005E003884EF65A
:1006E000FF7203EA0202028001B0704781B042F655
:1006F00052510348018002210248018001B0704735
:10070000005000400250004081B0ADF8001001469A
:10071000BDF8000001F20A02128802F0010292B252
:1007200002B1F7E701F20E02108001B07047FFFF3F
:1007300083B0CDF800E08DB20146D0B2BDF90C20F7
:1007400001F0010414B12F02BFB200E0AFB28F4C30
:100750000C1B640965018D4C6419A0468C4CA042A9
:1007600007D108F10406FD43ADB234882C40348033
:1007700007E0884CA04204D108F104052C883C43D2
:100780002C8040F2010403EA0404A4B23CB108F155
:100790000606FD43ADB234882C4034800AE040F2B6
:1007A000020403EA0404A4B224B108F106052C886B
:1007B0003C432C8040F2040403EA0404A4B23CB19C
:1007C00008F10806FD43ADB234882C4034800AE0BD
:1007D00040F2080403EA0404A4B224B108F10805B5
:1007E0002C883C432C8040F2100403EA0404A4B299
:1007F0003CB108F11806FD43ADB234882C4034807A
:100800000AE040F2200403EA0404A4B224B108F18F
:1008100018052C883C432C8040F2400403EA040471
:10082000A4B23CB108F11A06FD43ADB234882C40A5
:1008300034800AE040F2800403EA0404A4B224B144
:1008400008F11A052C883C432C8003F48074A4B270
:100850007CB908F10A06FD43ADB234882C403480DF
:1008600008F10C06FD43ADB234882C4034800020E2
:1008700087E01F2A01DD012083E0FFF737FF00201A
:10088000B9B2C7B24046102F80F07A8021FA07F43F
:10089000A4B204F00104A4B2002C00F06E8000F2B7
:1008A0000A06CD43ADB234882C40348000F20C06E9
:1008B000CD43ADB234882C40348003F48064A4B2BC
:1008C0002CB1ADF806100024ADF808400DE003F49B
:1008D0000064A4B22CB10024ADF80640ADF80810B5
:1008E00003E0ADF80610ADF8081000F20A063588EE
:1008F000BDF8064045EA0404348000F20C06358851
:10090000BDF8084045EA04043480234C041B640904
:10091000ADF80440214CA24218D0BDF80440E400D8
:10092000A4B265001E4C65197C08E4B264002E195F
:1009300007F00104E4B2E5002DB240F2FF04AC4040
:10094000A4B2E543ADB234882C403480BDF80440F5
:10095000E400A4B26500124C65197C08E4B264009E
:100960002E1907F00104E4B2E5002DB294B204FAA6
:1009700005F5ADB234882C4334807F1CFFB282E78A
:100980000020DDF800E003B0704700BF004C0040DD
:100990000000000001000000004C004000000000CA
:1009A0000850004081B0CDF800E040F2000A8146D6
:1009B00009F1D80109788A453AD20C210AFB01F1E4
:1009C00009EB01018B460BF1080109781F2915D1AC
:1009D0000BF108010978CCB20BF1060109888BB242
:1009E0000BF1040109888AB2DBF80010084691B2C5
:1009F000002210B4FFF79CFE01B014E00BF10801D7
:100A00000978CCB20BF1060109888BB20BF1040115
:100A100009888AB2DBF80010084691B2FF2210B4B0
:100A2000FFF786FE01B00AF1010A5FFA8AFABFE712
:100A3000DDF800E001B0704781B0CDF800E0074676
:100A40000C463846FFF73CFD40F280013846FFF780
:100A50003FFD40F200013846FFF714FD40F200016F
:100A60003846FFF71DFD40F200013846FFF73CFD18
:100A700040F200013846FFF717FE40F20001384609
:100A8000FFF724FE21463846FFF754FD3846FFF7AE
:100A900001FEDDF800E001B07047FFFF81B0CDF846
:100AA00000E081B20348FFF72FFEDDF800E001B05F
:100AB000704700BF0018004081B0CDF800E08446C8
:100AC0000B4A0C490A600C4A0C490A600C4A0D4951
:100AD0000A600D4A0D490A600D48FFF763FF614641
:100AE0000C48FFF7A9FFDDF800E001B0704700BF38
:100AF0004D0C000058000020FFFFFFFF5C000020AD
:100B0000FFFFFFFF60000020FFFFFFFF64000020E9
:100B10009C1900000014004081B0CDF800E084462C
:100B20000B4A0C490A600C4A0C490A600C4A0D49F0
:100B30000A600D4A0D490A600D48FFF733FF614610
:100B40000C48FFF779FFDDF800E001B0704700BF07
:100B5000310C000058000020FFFFFFFF5C00002068
:100B6000FFFFFFFF60000020FFFFFFFF6400002089
:100B7000E41700000010004081B0CDF800E081B221
:100B80000348FFF7C1FDDDF800E001B0704700BF8A
:100B9000001C004081B0CDF800E0002424B240F2F7
:100BA00040031BB240F2040212B242EA03031BB23A
:100BB00040F2010212B243EA020293B2002210B4E0
:100BC000FFF7B6FD01B0DDF800E001B07047FFFFB0
:100BD00081B0CDF800E084460B4A0C490A600C4A0B
:100BE0000C490A600C4A0D490A600D4A0D490A6019
:100BF0000D48FFF7D7FE61460C48FFF71DFFDDF8F3
:100C000000E001B0704700BF9D0A000058000020BE
:100C1000FFFFFFFF5C000020FFFFFFFF60000020E0
:100C2000FFFFFFFF64000020C01800000018004014
:100C300081B0CDF800E081B20348FFF765FDDDF833
:100C400000E001B0704700BF0010004081B0CDF857
:100C500000E081B20348FFF757FDDDF800E001B086
:100C6000704700BF0014004081B0CDF800E00024C0
:100C700024B240F240031BB240F2040212B242EA34
:100C800003031BB240F2010212B243EA020293B222
:100C9000012210B4FFF74CFD01B0DDF800E001B017
:100CA0007047FFFF81B00248007801B0704700BF75
:100CB0001888094281B00248007801B0704700BF2F
:100CC0002088094281B00248007801B0704700BF17
:100CD0000888094281B00248007801B0704700BF1F
:100CE0003C88094281B00248007801B0704700BFDB
:100CF0000088094281B00248007801B0704700BF07
:100D00003080094281B00248007801B0704700BFCE
:100D10000884094281B00248007801B0704700BFE2
:100D20003C80094281B00248007801B0704700BFA2
:100D30001C80094281B00248007801B0704700BFB2
:100D40001880094281B00248007801B0704700BFA6
:100D50002C84094281B00248007801B0704700BF7E
:100D60001480094281B00248007801B0704700BF8A
:100D70003088094281B00248007801B0704700BF56
:100D80000C84094281B00248007801B0704700BF6E
:100D90003488094281B00248007801B0704700BF32
:100DA0003888094281B0CDF800E0A9E0012905D1D9
:100DB00040F208016548FFF7EDFE04E040F208014B
:100DC0006348FFF751FFBBE0012905D140F28001E4
:100DD0006048FFF7DFFE04E040F280015E48FFF765
:100DE00043FFADE0012905D140F204015B48FFF764
:100DF000D1FE04E040F204015948FFF735FF9FE0BF
:100E0000012905D140F220015648FFF7C3FE04E056
:100E100040F220015448FFF727FF91E0012905D156
:100E200040F280014F48FFF7B5FE04E040F2800138
:100E30004D48FFF719FF83E0012905D140F2400139
:100E40004848FFF7A7FE04E040F240014648FFF79C
:100E50000BFF75E0012905D140F240014348FFF73F
:100E600099FE04E040F240014148FFF7FDFE67E0D3
:100E7000012905D140F240013648FFF78BFE04E01E
:100E800040F240013448FFF7EFFE59E0012905D157
:100E900040F204013548FFF77DFE04E040F2040112
:100EA0003348FFF7E1FE4BE0012905D140F208018C
:100EB0002E48FFF76FFE04E040F208012C48FFF7D0
:100EC000D3FE3DE0012905D140F220012148FFF782
:100ED00061FE04E040F220011F48FFF7C5FE2FE04D
:100EE000012905D140F210011A48FFF753FE04E032
:100EF00040F210011848FFF7B7FE21E0012020E082
:100F000000283FF453AF01283FF45EAF02283FF4BE
:100F100069AF03283FF474AF04283FF47FAF05287E
:100F20003FF48AAF06283FF495AF0728A0D00828E1
:100F3000ACD00928B8D00A28C4D00B28D0D0DDE71F
:100F40000020DDF800E001B0704700BF214C0040F8
:100F5000234C0040414C0040434C0040404C00407A
:100F6000424C0040004C0040024C0040014C00400C
:100F7000034C004081B0CDF800E00068FFF79CFD15
:100F80000020DDF800E001B07047FFFF81B0CDF830
:100F900000E00068FFF71CFE0020DDF800E001B073
:100FA0007047FFFF81B0CDF800E0A9E0012905D12D
:100FB00040F201016548FFF7EDFD04E040F2010158
:100FC0006348FFF751FEBBE0012905D140F2400123
:100FD0006048FFF7DFFD04E040F240015E48FFF7A4
:100FE00043FEADE0012905D140F201015948FFF768
:100FF000D1FD04E040F201015748FFF735FE9FE0C4
:10100000012905D140F220015448FFF7C3FD04E057
:1010100040F220015248FFF727FE91E0012905D157
:1010200040F280014D48FFF7B5FD04E040F2800139
:101030004B48FFF719FE83E0012905D140F240013A
:101040004648FFF7A7FD04E040F240014448FFF79F
:101050000BFE75E0012905D140F280014148FFF700
:1010600099FD04E040F280013F48FFF7FDFD67E095
:10107000012905D140F210013A48FFF78BFD04E049
:1010800040F210013848FFF7EFFD59E0012905D182
:1010900040F204013548FFF77DFD04E040F2040111
:1010A0003348FFF7E1FD4BE0012905D140F208018B
:1010B0002E48FFF76FFD04E040F208012C48FFF7CF
:1010C000D3FD3DE0012905D140F220011F48FFF783
:1010D00061FD04E040F220011D48FFF7C5FD2FE04F
:1010E000012905D140F210011848FFF753FD04E033
:1010F00040F210011648FFF7B7FD21E0012020E083
:1011000000283FF453AF01283FF45EAF02283FF4BC
:1011100069AF03283FF474AF04283FF47FAF05287C
:101120003FF48AAF06283FF495AF0728A0D00828DF
:10113000ACD00928B8D00A28C4D00B28D0D0DDE71D
:101140000020DDF800E001B0704700BF414C0040D6
:10115000434C0040404C0040424C0040004C00409A
:10116000024C0040014C0040034C0040204C004029
:10117000224C004081B00248007801B0704700BFA7
:101180003488094281B00248007801B0704700BF3E
:101190003088094281B00248007801B0704700BF32
:1011A0002880094281B00248007801B0704700BF32
:1011B0002C80094281B00248007801B0704700BF1E
:1011C0003880094281B000F230031A6804490A608D
:1011D00003F21C010A6803490A6001B0704700BFAE
:1011E0007C0000208000002081B0026806490A606F
:1011F000011D0A6805490A6000F208010A680449ED
:101200000A6001B0704700BF680000206C00002039
:101210007000002081B0CDF800E00178CCB2A0B21F
:10122000034C2468A0470020DDF800E001B07047BF
:101230004800002081B00248007801B0704700BF2C
:101240001480094281B00248007801B0704700BFA5
:101250001C80094281B0CDF800E0FFF72DFC044A64
:1012600004490A600020DDF800E001B0704700BFCB
:101270004D0C00004800002081B0CDF800E0FFF7E1
:10128000A7FC044A04490A600020DDF800E001B030
:10129000704700BF9D0A00004800002081B002484E
:1012A000007801B0704700BF1880094281B0CDF8C6
:1012B00000E0FFF731FC044A04490A600020DDF831
:1012C00000E001B0704700BF310C00004800002072
:1012D00081B0CDF800E0034C2468A047DDF800E0C1
:1012E00001B070478000002081B0CDF800E05FFAC7
:1012F00081F95FFA82FA0FE05FFA8AF15FFA89F00A
:10130000FFF750FE0DE05FFA8AF15FFA89F0FFF710
:1013100049FD06E0012004E00028EDD00128F2D0CC
:10132000F8E7DDF800E001B07047FFFF81B0CDF8CD
:1013300000E00DE00846FFF79FFF10E00846FFF7CA
:1013400089FF0CE00846FFF7B1FF08E0012006E046
:101350000028EFD00128F1D01028F3D0F6E7DDF80F
:1013600000E001B07047FFFF81B0CDF800E009E078
:101370000846FFF70BFE0AE00846FFF7FBFD06E014
:10138000012004E00028F3D00128F5D0F8E7DDF8CB
:1013900000E001B07047FFFF81B0CDF800E00346E8
:1013A0000846FFF721FF1846FFF70CFF0023064A07
:1013B00013700023054A13700023054A1360DDF8FB
:1013C00000E001B0704700BF3F0000207400002023
:1013D0007800002081B0CDF800E0034C2468A047DD
:1013E000DDF800E001B070477C00002083B0CDF84C
:1013F00000E0024610460D228DF808200A228DF8E2
:1014000009201FE0FFF706FF23E002782AB10190D0
:10141000FFF700FF0198401CF7E71AE002782AB1B5
:101420000190FFF7F7FE0198401CF7E702AA10466B
:10143000FFF7F0FE0DF109021046FFF7EBFE08E0A2
:10144000062007E00029DDD00129DED00229E5D001
:10145000F6E70020DDF800E003B0704781B04FF000
:1014600000094FF0000CBDEB0A0F04DCBDEB0B0FC5
:1014700001DBD446EA464BF8049BBBEB0A0FFAD1DA
:10148000BCEB0A0F05DDE246D9F800B00BF1040B06
:10149000F1E701B07047FFFF1027000000366E0132
:1014A00081B040F20907C0F2000700BF7F1EFDD1E6
:1014B00000BF00BF00BF00BF01B0704781B01CF883
:1014C000019B0BF8019BBBEB0A0FF8D101B07047F1
:1014D00081B0CDF800E0FFF77DFF27490860FFF7F6
:1014E000F7FE264908602449086858B124480221BB
:1014F000FFF77CFF012149B222480160FFF76AFF34
:1015000000B1FBE71D49086858B11F480221FFF7E9
:101510006DFF012149B21D480160FFF7D9FE00B1FE
:10152000FBE71549086880F00102D2B21549086846
:1015300002EA0000C0B238B1002149B2114801608E
:1015400013480221FFF752FF0C49086880F001029E
:10155000D2B20E49086802EA0000C0B238B10021D8
:1015600049B20A4801600B480221FFF73FFFDDF84E
:1015700000E001B0704700BFC0070022C40700228E
:101580000C000020C807002218000020CC07002211
:10159000240000203100002080250000FFFFFFFF15
:1015A00081B0CDF800E00B490B48FFF7F5FE0B4882
:1015B0000221FFF71BFF44F67D77C0F2120700BF40
:1015C0007F1EFDD100BF00BF00BF00BFDDF800E0FF
:1015D00001B07047A81B0000781A0000000000202E
:1015E00081B0CDF800E0012200210020FFF77CFE51
:1015F000012207210020FFF777FE0C48014600205A
:10160000FFF7B2FE42F280511020FFF78FFE44F642
:101610007D77C0F2120700BF7F1EFDD100BF00BF63
:1016200000BF00BFDDF800E001B070479815000072
:1016300081B0FEE701B0704781B04EF68850CEF21F
:101640000000016841F47001016000BF00BF00BFED
:1016500000BFF1EE100A40F44000E1EE100A01B0C4
:101660007047FFFF81B002490248016001B0704736
:1016700080BB00005400002081B000F011F8FFF79B
:10168000DBFF00F0E5FAFFF7EDFF00F093FAFFF75C
:10169000A7FFFFF785FFFFF71BFFFCE7FEE7FFFF54
:1016A00083B0CDF800E0374B374C384D384E394FCA
:1016B000394845F680213948018004F007000528A3
:1016C00004D004F07000502800D00BE0012252B288
:1016D00033480280002149B23248018032480280FA
:1016E00032480180802132480160019502961E46F1
:1016F00025463A46029B019C2E48006800F4807003
:1017000000B1F9E72C492D48016001951146324698
:101710001D46019B2748006800F4807000B1F9E77E
:101720002748016027480160274928480160284868
:10173000026028480360200D00F0070028B944F03B
:101740000301254801602A4610E044F4803040F04F
:101750000301214801602A462048006830B1FFF7A4
:101760009FFE012149B21E480160F5E7002117489C
:10177000016042F4B44109480180DDF800E003B0A3
:10178000704700BF000005003300000003000100A7
:10179000840000000010000080BB00000C480040E6
:1017A0004CA509428CA5094248A5094288A50942D1
:1017B000143004E00400014001005A6900000140B7
:1017C00010100140141001405A690000000401404B
:1017D00004040140080401400C0401400489204233
:1017E000048A2042004C004004000505000000006F
:1017F000004C00400800050500000000000000004B
:1018000000000000000000000000000000000000D8
:1018100000000000000000000000000000000000C8
:1018200000000000000000000000000000000000B8
:1018300000000000000000000000000000000000A8
:101840000000000000000000000000000000000098
:101850000000000000000000000000000000000088
:101860000000000000000000000000000000000078
:101870000000000000000000000000000000000068
:101880000000000000000000000000000000000058
:101890000000000000000000000000000000000048
:1018A0000000000000000000000000000000000038
:1018B0000000000000000000000000000200000026
:1018C000204C00400400050500000000204C0040B2
:1018D00008000505000000000000000000000000F6
:1018E00000000000000000000000000000000000F8
:1018F00000000000000000000000000000000000E8
:1019000000000000000000000000000000000000D7
:1019100000000000000000000000000000000000C7
:1019200000000000000000000000000000000000B7
:1019300000000000000000000000000000000000A7
:101940000000000000000000000000000000000097
:101950000000000000000000000000000000000087
:101960000000000000000000000000000000000077
:101970000000000000000000000000000000000067
:101980000000000000000000000000000000000057
:10199000000000000000000002000000004C0040B9
:1019A0000004050500000000004C0040000805058B
:1019B0000000000000000000000000000000000027
:1019C0000000000000000000000000000000000017
:1019D0000000000000000000000000000000000007
:1019E00000000000000000000000000000000000F7
:1019F00000000000000000000000000000000000E7
:101A000000000000000000000000000000000000D6
:101A100000000000000000000000000000000000C6
:101A200000000000000000000000000000000000B6
:101A300000000000000000000000000000000000A6
:101A40000000000000000000000000000000000096
:101A50000000000000000000000000000000000086
:101A60000000000000000000000000000000000076
:101A70000000000002000000FFFFFFFFFFFFFFFF6C
:101A8000FFFFFFFFFFFFFFFFFFFFFFFFFFFFFFFF66
:101A9000FFFFFFFFFFFFFFFFFFFFFFFFFFFFFFFF56
:101AA000FFFFFFFFFFFFFFFFB50C0000A50C0000CC
:101AB000E50C0000550D0000250D0000350D00005F
:101AC000150D0000F50C0000050D0000750D00005F
:101AD000850D0000650D00000000010002000400FB
:101AE0000800100020001100210022004400250001
:101AF00049004A005200920053005500AA006B00B2
:101B0000AD00B500B600D600B700BB00DD00ED00AB
:101B1000EE00BF00DF00EF00F700FB00FD00FE005D
:101B200000001102CB024303E903E4049605860694
:101B30006308B008C709B80B070DF70DA90EA30F6E
:101B4000BE101A118A13531673176E1820190B1A28
:101B5000591BEB1B4F1DB51E441F8D2010217C21EE
:101B60002F222C23D2234824496E697469616C6941
:101B70007A656400417070726F616368696E6700B6
:101B80004D6F76696E672061776179004E6F206DC9
:101B90006F7665736D656E74004E6F206D6F766540
:101BA000736D656E7400FFFF9D0A0000FFFFFFFF6D
:101BB000FFFFFFFF00B5DFF824B0DFF824A0DFF857
:101BC00024C0FFF77BFCDFF820B0DFF820A0DFF8AF
:101BD00020C0FFF773FC00BD704700BF000000206D
:101BE0003E000020681B000040000020480000204C
:101BF00098140000FFFFFFFFFFFFFFFFFFFFFFFF45
:101C0000FFFFFFFFFFFFFFFFFFFFFFFFFFFFFFFFE4
:101C1000FFFFFFFFFFFFFFFFFFFFFFFFFFFFFFFFD4
:101C2000FFFFFFFFFFFFFFFFFFFFFFFFFFFFFFFFC4
:101C3000FFFFFFFFFFFFFFFFFFFFFFFFFFFFFFFFB4
:101C4000FFFFFFFFFFFFFFFFFFFFFFFFFFFFFFFFA4
:101C500000B5DFF810B0DFF810A0FFF7FFFB00BD04
:101C6000704700BF0000002084000020FFFFFFFF3E
:00000001FF
