:10000000FCFF02200D160000C5150000C5150000FC
:10001000C5150000C5150000C5150000C515000078
:10002000C5150000C5150000C5150000C515000068
:10003000C5150000C5150000C5150000C515000058
:10004000C5150000C5150000C5150000C515000048
:10005000C5150000C5150000C5150000C515000038
:10006000C5150000C5150000C5150000C515000028
:10007000C5150000C5150000C5150000C515000018
:10008000C5150000C5150000C5150000C515000008
:10009000C5150000C5150000C5150000C5150000F8
:1000A000C5150000C5150000C5150000C5150000E8
:1000B000C5150000C5150000C5150000C5150000D8
:1000C000C5150000C5150000C5150000C5150000C8
:1000D000C5150000C5150000C5150000C5150000B8
:1000E000C5150000C5150000C5150000C5150000A8
:1000F000C5150000C5150000C5150000C515000098
:10010000C5150000C5150000C5150000C515000087
:10011000C5150000C5150000C5150000C515000077
:10012000C5150000C5150000C5150000C515000067
:10013000C5150000C5150000C5150000C515000057
:10014000C5150000C5150000C5150000C515000047
:10015000C5150000C5150000C5150000C515000037
:10016000C5150000C5150000C5150000C515000027
:10017000C5150000C5150000C5150000C515000017
:10018000C5150000C5150000C5150000C515000007
:10019000C5150000C5150000FFFFFFFFFFFFFFFFB3
:1001A000FFFFFFFFFFFFFFFFFFFFFFFFFFFFFFFF5F
:1001B000FFFFFFFFFFFFFFFFFFFFFFFFFFFFFFFF4F
:1001C000FFFFFFFFFFFFFFFFFFFFFFFFFFFFFFFF3F
:1001D000FFFFFFFFFFFFFFFFFFFFFFFFFFFFFFFF2F
:100400000000000000000000FFFFFFFF02FDFFFFF3
:1004100081B00248006801B0704700BF1001FF1FA3
:1004200081B0CDF800E00446FFF7F2FF40F2E8317A
:1004300000FB01F3194909680A0F1849096801F01E
:100440007061090EC8B21549096801F47001090DFF
:10045000CDB21249096801F47021090CCEB2D1B2B3
:10046000491C09B259430F462360221D411C09B2A1
:10047000B7FBF1F1116004F20802691C09B2B7FB85
:10048000F1F1116004F20C02711C09B2B7FBF1F139
:100490001160DDF800E001B0704700BF4480044007
:1004A00081B040F2FF1100EA01018909084600F21B
:1004B00009024FF0010101FA02F20449096841EA18
:1004C000020202490A6001B0704700BF3880044050
:1004D00082B0CDF800E080464FEA581202F00702E1
:1004E000914608F01F04A24693010D4AD3184FF01D
:1004F0000102A240019218460A46019900F06AF9E9
:100500004FEA0933074AD3184FEA8A029C1808F4C5
:10051000E06322681A432260DDF800E002B0704711
:1005200000F00F400090044081B002780A4302704E
:1005300001B0704781B01849884204D1012252B2FB
:1005400016490A6026E01649884204D1012252B2B7
:1005500014490A601EE01449884204D1012252B2B3
:1005600012490A6016E01249884204D1012252B2AF
:1005700010490A600EE01049884204D1012252B2AB
:100580000E490A6006E00E49884203D1012252B2A8
:100590000C490A6001B0704700A00640A8069042CE
:1005A00000B00640AC06904200C00640B006904243
:1005B00000D00640B406904200A00E4028059042AC
:1005C00000B00E402C05904281B0CDF800E040F222
:1005D000000C83464FEA8C010BEB01010968B1F175
:1005E000FF3F12D00BF134014FEA8C03C9180968A0
:1005F0000A460BEB0301096808461146FFF768FF3E
:100600000CF1010C1FFA8CFCE4E7DDF800E001B00E
:100610007047FFFF81B0C21C117841F004011170D6
:1006200001B0704781B0C21C117841F0080111700F
:1006300001B0704781B0841C23784FF6EF7212B27C
:1006400003EA02022270841C0B0122781A432270F2
:1006500001B0704785B0CDF800E08046894601AA18
:100660001046FFF7DDFE164A904503D0154A904527
:1006700000D001E0019800E002984FEA0912B0FBB7
:10068000F2F291B292B2130A9BB298F800201A4388
:1006900088F8002008F10103CAB21A7043014FEA3A
:1006A0000912B3FBF2F34A0192B29A1AD0B208F1DE
:1006B0000A031A7802431A70DDF800E005B07047AB
:1006C00000A0064000B0064081B001F0020262B115
:1006D000841C01F0020322781A432270841C01F06A
:1006E000010322781A43227007E0841C23784FF616
:1006F000FD7212B203EA0202227001B07047FFFFDE
:1007000083B0CDF800E006460C4615463046FFF7AC
:10071000C7FE40F2FF1306EA0300800900262246C6
:100720002946202E39D24FF0010303FA06F402EADB
:1007300004031F46A3422ED104031A4B1C19B30015
:10074000E51801952C68184B04EA03032B60174B3E
:1007500001EA0304019B1B6843EA0404019B1C603B
:1007600001F48033B3F5803F15D08401104B1B1981
:100770001433029301F400333BB1FC43029B1B682A
:1007800003EA0404029B1C6005E0029B1B6843EA29
:100790000704029B1C60761CC3E7DDF800E003B091
:1007A000704700BF009004400000FFFFFFFF000003
:1007B00000F00F4081B0011D0978C1F3401001B075
:1007C0007047FFFF81B0011D0978C1F3801001B0AF
:1007D0007047FFFF81B0CDF800E0FFF791FFDDF833
:1007E00000E001B07047FFFF85B0CDF800E0019058
:1007F0000291ADF80C20ADF81030BDF81440ADF802
:1008000014400698FFF7E0FE0198FFF793FE029967
:100810000198FFF71FFFBDF80C100198FFF70AFFC2
:10082000BDF810100198FFF74FFFBDF814100198A4
:10083000FFF77AFE0198FFF7EDFE0198FFF7F2FE51
:10084000DDF800E005B0704781B0011D0A78C2F301
:10085000401101B9F9E7C11D0978C8B201B070476C
:1008600081B0ADF800100146BDF800000A1D1378F4
:10087000C3F3C01202B9F9E7CA1D107001B0704786
:1008800081B0304988420CD12F4A30490A60304A41
:1008900030490A60304A31490A60314A31490A60B8
:1008A0004EE0314988420CD1304A28490A60304A2A
:1008B00028490A602F4A29490A602F4A29490A60B3
:1008C0003EE02E4988420CD12D4A20490A602D4A2B
:1008D00020490A602C4A21490A602C4A21490A60B1
:1008E0002EE02B4988420CD12A4A18490A602A4A2C
:1008F00018490A60294A19490A60294A19490A60AF
:100900001EE0284988420CD1274A10490A60274A2C
:1009100010490A60264A11490A60264A11490A60AC
:100920000EE0254988420BD1244A08490A60244A2E
:1009300008490A60234A09490A60234A09490A60AA
:1009400001B0704700A00640810A00001401FF1F9B
:10095000D10A00001801FF1FB90A00001C01FF1F87
:10096000E50900002001FF1F00B00640050B000054
:10097000CD090000510A0000690A000000C00640CD
:10098000210B0000FD090000810C0000510C00004B
:1009900000D006403D0B0000690C0000250D000052
:1009A000D10B000000A00E40E90A0000E90B000096
:1009B000010C0000590B000000B00E409D0A000021
:1009C000A10B0000890B00000D0D000081B0CDF8D7
:1009D00000E00348FFF738FFDDF800E001B07047A2
:1009E00000B0064081B0CDF800E00348FFF7EAFE12
:1009F000DDF800E001B0704700A0064081B0CDF8FE
:100A000000E00348FFF720FFDDF800E001B0704789
:100A100000C0064081B0CDF800E003460A48FFF769
:100A20002FFF0A4A40F2000104B402B440F200026F
:100A3000194640F200030448FFF7D6FE02B0DDF885
:100A400000E001B0704700BF00D00640601B00000E
:100A500081B0CDF800E00348FFF7ACFEDDF800E020
:100A600001B0704700B0064081B0CDF800E0034807
:100A7000FFF7A8FEDDF800E001B0704700B00640C7
:100A800081B0CDF800E081B20348FFF7E9FEDDF860
:100A900000E001B0704700BF00A0064081B0CDF873
:100AA00000E081B20348FFF7DBFEDDF800E001B0B3
:100AB000704700BF00B00E4081B0CDF800E00348A1
:100AC000FFF778FEDDF800E001B0704700A00640B7
:100AD00081B0CDF800E00348FFF7B6FEDDF800E096
:100AE00001B0704700A0064081B0CDF800E081B2AF
:100AF0000348FFF7B5FEDDF800E001B0704700BF26
:100B000000A00E4081B0CDF800E081B20348FFF7AD
:100B1000A7FEDDF800E001B0704700BF00B006405E
:100B200081B0CDF800E081B20348FFF799FEDDF80F
:100B300000E001B0704700BF00C0064081B0CDF8B2
:100B400000E081B20348FFF78BFEDDF800E001B062
:100B5000704700BF00D0064081B0CDF800E00348E8
:100B6000FFF730FEDDF800E001B0704700A00E4056
:100B700081B0CDF800E0034AFFF72CFEDDF800E07D
:100B800001B070470401020081B0CDF800E00348D5
:100B9000FFF710FEDDF800E001B0704700B00E4036
:100BA00081B0CDF800E00348FFF74EFEDDF800E02D
:100BB00001B0704700B00E4081B0CDF800E0034AAC
:100BC000FFF708FEDDF800E001B070470401040003
:100BD00081B0CDF800E00348FFF7F4FDDDF800E058
:100BE00001B0704700D0064081B0CDF800E0034866
:100BF000FFF72AFEDDF800E001B0704700A00E40CC
:100C000081B0CDF800E00348FFF7D4FDDDF800E047
:100C100001B0704700A00E4081B0CDF800E09FB257
:100C200003468DB296B2DDF804800848FFF728FE2F
:100C30004446AAB21946B3B2044810B480B4FFF7D0
:100C4000D3FD02B0DDF800E001B0704700C00640FF
:100C500081B0CDF800E00348FFF7B4FDDDF800E017
:100C600001B0704700C0064081B0CDF800E00348F5
:100C7000FFF7EAFDDDF800E001B0704700D0064064
:100C800081B0CDF800E00348FFF794FDDDF800E007
:100C900001B0704700C0064081B0CDF800E00346C7
:100CA0000A48FFF7EDFD0A4A40F2000104B402B41D
:100CB00040F20002194640F200030448FFF794FD99
:100CC00002B0DDF800E001B0704700BF00C0064090
:100CD000CC1B000081B0CDF800E09FB203468DB27E
:100CE00096B2DDF804800848FFF7CAFD4446AAB270
:100CF0001946B3B2044810B480B4FFF775FD02B0D2
:100D0000DDF800E001B0704700D0064081B0CDF8BA
:100D100000E00348FFF756FDDDF800E001B0704742
:100D200000B00E4081B0CDF800E00348FFF742FD6F
:100D3000DDF800E001B0704700D0064081B0CDF88A
:100D400000E0044C2468A047C0B2DDF800E001B028
:100D5000704700BF3801FF1F81B000910146009825
:100D60000B780278934209D10A7822B90B7802787D
:100D70009A1AD0B203E0491C401CF1E7012001B0EF
:100D80007047FFFF81B0CDF800E0FFF785FF044A10
:100D900004490A600020DDF800E001B0704700BFA0
:100DA000210B00004400FF1F81B0CDF800E0FFF7E9
:100DB00031FE044A04490A600020DDF800E001B079
:100DC000704700BF3D0B00004400FF1F81B0CDF80D
:100DD00000E0A9E0012905D14FF004016548FFF7C3
:100DE000C7FE04E04FF004016348FFF7E5FEBBE0F7
:100DF000012905D14FF400615E48FFF7B9FE04E018
:100E00004FF400615C48FFF7D7FEADE0012905D142
:100E10004FF010015948FFF7ABFE04E04FF010010E
:100E20005748FFF7C9FE9FE0012905D14FF0200187
:100E30005248FFF79DFE04E04FF020015048FFF7B5
:100E4000BBFE91E0012905D14FF080014B48FFF72F
:100E50008FFE04E04FF080014948FFF7ADFE83E0CC
:100E6000012905D14FF040014448FFF781FE04E01D
:100E70004FF040014248FFF79FFE75E0012905D180
:100E80004FF480613F48FFF773FE04E04FF4806148
:100E90003D48FFF791FE67E0012905D14FF400516D
:100EA0003448FFF765FE04E04FF400513248FFF785
:100EB00083FE59E0012905D14FF004013348FFF7C3
:100EC00057FE04E04FF004013148FFF775FE4BE098
:100ED000012905D14FF008012C48FFF749FE04E035
:100EE0004FF008012A48FFF767FE3DE0012905D1D0
:100EF0004FF480712548FFF73BFE04E04FF480710A
:100F00002348FFF759FE2FE0012905D14FF4007166
:100F10001E48FFF72DFE04E04FF400711C48FFF758
:100F20004BFE21E0012020E000283FF453AF0128D0
:100F30003FF45EAF02283FF469AF03283FF474AF7B
:100F400004283FF47FAF05283FF48AAF06283FF41A
:100F500095AF0728A0D00828ACD00928B8D00A2817
:100F6000C4D00B28D0D0DDE70020DDF800E001B0D0
:100F7000704700BF50F00F4040F00F4090F00F401E
:100F800080F00F4010F00F4000F00F40D0F00F4005
:100F9000C0F00F4081B0CDF800E00D4D00F20C0123
:100FA00009688CB200F2080109688BB2011D09685A
:100FB0008AB20168084691B29AB2A3B220B4FFF790
:100FC0002BFE01B00020DDF800E001B0704700BF4B
:100FD000CC1B000081B0CDF800E00D4D00F20C01FB
:100FE00009688CB200F2080109688BB2011D09681A
:100FF0008AB20168084691B29AB2A3B220B4FFF750
:1010000069FE01B00020DDF800E001B0704700BFCC
:10101000601B000081B0CDF800E0A9E0012905D1F6
:101020004FF008016548FFF7A3FD04E04FF0080109
:101030006348FFF7C1FDBBE0012905D14FF4002152
:101040005E48FFF795FD04E04FF400215C48FFF790
:10105000B3FDADE0012905D14FF010015948FFF76C
:1010600087FD04E04FF010015748FFF7A5FD9FE012
:10107000012905D14FF020015248FFF779FD04E026
:101080004FF020015048FFF797FD91E0012905D16D
:101090004FF080014B48FFF76BFD04E04FF08001FB
:1010A0004948FFF789FD83E0012905D14FF0400150
:1010B0004448FFF75DFD04E04FF040014248FFF770
:1010C0007BFD75E0012905D14FF010013F48FFF786
:1010D0004FFD04E04FF010013D48FFF76DFD67E064
:1010E000012905D14FF480713448FFF741FD04E038
:1010F0004FF480713248FFF75FFD59E0012905D1B7
:101100004FF480313348FFF733FD04E04FF4803172
:101110003148FFF751FD4BE0012905D14FF4003173
:101120002C48FFF725FD04E04FF400312A48FFF773
:1011300043FD3DE0012905D14FF480612548FFF7CB
:1011400017FD04E04FF480612348FFF735FD2FE0E1
:10115000012905D14FF400611E48FFF709FD04E0A5
:101160004FF400611C48FFF727FD21E0012020E03B
:1011700000283FF453AF01283FF45EAF02283FF44C
:1011800069AF03283FF474AF04283FF47FAF05280C
:101190003FF48AAF06283FF495AF0728A0D008286F
:1011A000ACD00928B8D00A28C4D00B28D0D0DDE7AD
:1011B0000020DDF800E001B0704700BF50F00F40A4
:1011C00040F00F40D0F00F40C0F00F4010F00F4043
:1011D00000F00F4090F00F4080F00F4081B00268A7
:1011E00006490A60011D0A6805490A6000F2080103
:1011F0000A6804490A6001B0704700BF3401FF1F4C
:101200003801FF1F2801FF1F81B0CDF800E00178F1
:10121000CCB2A0B2034C2468A0470020DDF800E067
:1012200001B070474400FF1F81B0CDF800E0044CCE
:101230002468A047C0B2DDF800E001B0704700BFED
:101240002801FF1F81B000F230031A6804490A60C8
:1012500003F21C010A6803490A6001B0704700BF2D
:101260002C01FF1F3001FF1F81B0CDF800E01248B4
:10127000007801281AD100210F4801700F4800683A
:101280000F49FFF769FD08B9012010E00B4800681D
:101290000C49FFF761FD08B9022008E00748006823
:1012A0000949FFF759FD08B9042000E00020DDF8E6
:1012B00000E001B0704700BF4300FF1F2401FF1F83
:1012C0003100FF1F3700FF1F3D00FF1F81B0CDF829
:1012D00000E05FFA81F85FFA82F90FE05FFA89F1C6
:1012E0005FFA88F0FFF772FD0DE05FFA89F15FFAAF
:1012F00088F0FFF78FFE06E0012004E00028EDD023
:101300000128F2D0F8E7DDF800E001B07047FFFFF8
:1013100081B0CDF800E0FFF711FDDDF800E001B08D
:101320007047FFFF81B00E4A10600E4B1A7882188A
:1013300011701A461278521C1A700278402A02D094
:101340000023084A1370074A1278042A05D10023A3
:10135000044A13700123044A137001B0704700BFA0
:101360002401FF1F3C01FF1F4300FF1F81B0CDF888
:1013700000E009E00846FFF70DFE0AE00846FFF727
:1013800029FE06E0012004E00028F3D00128F5D072
:10139000F8E7DDF800E001B07047FFFF81B0CDF85D
:1013A00000E003460846FFF719FF1846FFF74AFF1B
:1013B0000023044A13700023034A1370DDF800E091
:1013C00001B070474300FF1F3C01FF1F83B0CDF801
:1013D00000E0024610460D228DF808200A228DF802
:1013E00009201FE0FFF710FF23E002782AB10190E7
:1013F000FFF70AFF0198401CF7E71AE002782AB1CC
:101400000190FFF701FF0198401CF7E702AA104680
:10141000FFF7FAFE0DF109021046FFF7F5FE08E0AE
:10142000062007E00029DDD00129DED00229E5D021
:10143000F6E70020DDF800E003B0704781B0CDF89A
:1014400000E009E00846FFF79DFC0AE00846FFF7C8
:10145000ABFC06E0012004E00028F3D00128F5D021
:10146000F8E7DDF800E001B07047FFFF81B0CDF88C
:1014700000E0FFF7D9FEDDF800E001B07047FFFFA4
:1014800081B01CF8019B0BF8019BBBEB0A0FF8D154
:1014900001B0704782B0CDF800E0FFF7E7FF28B158
:1014A000FFF736FFC1B21048FFF73CFFFFF7DCFE45
:1014B0008DF80400022803D10C480221FFF786FFB3
:1014C0009DF80400042803D109480221FFF77EFF9C
:1014D0009DF80400012803D106480221FFF776FF9A
:1014E000DDF800E002B070474800FF1F0C00FF1F4E
:1014F0001800FF1F2500FF1F81B0CDF800E00B4949
:101500000B48FFF74BFF0B480221FFF75FFF40F648
:10151000FE07C0F23D0700BF00BF7F1EFDD100BF28
:1015200000BF00BFDDF800E001B07047EC1C000018
:10153000381C00000000FF1F81B0CDF800E0012240
:1015400000210020FFF7C2FE012207210020FFF743
:10155000BDFE0C4801460020FFF708FF42F2805113
:101560000120FFF76BFF40F6FE07C0F23D0700BF0A
:1015700000BF7F1EFDD100BF00BF00BFDDF800E04F
:1015800001B07047DC1C000081B04FF000094FF043
:10159000000CBDEB0A0F04DCBDEB0B0F01DBD446E6
:1015A000EA464BF8049BBBEB0A0FFAD1BCEB0A0FDF
:1015B00005DDE246D9F800B00BF1040BF1E701B00C
:1015C0007047FFFF81B0FEE701B0704781B072B68F
:1015D0000849086840F47000086000BF00BF00BF01
:1015E00000BFF1EE100A40F44000E1EE100A62B6CE
:1015F00001B0704788ED00E081B002490248016007
:1016000001B07047C0D401001001FF1F81B000F08D
:1016100011F8FFF7DBFF00F0AFFBFFF7EDFF00F085
:101620006BFBFFF789FFFFF767FFFFF733FFFCE76F
:10163000FEE7FFFF90B072B697480190974802907E
:1016400097480390974804909748059097480690CC
:1016500097480790974808909748099097480A90AC
:1016600097480B9097480C90974998480D90984848
:101670000E900D9800F007000F9001F0010050B996
:101680004CF22050934908804DF62810088040F213
:10169000D211914801809148007800F0010050B1CA
:1016A0008F48007800F0080020B18D49087840F09C
:1016B0000800087021E08B48006840F0005189481C
:1016C00001608948006800F48070B0B986480168FC
:1016D0006FF4705001EA000040F4407182480160EC
:1016E0008148006840F480717F4801607E4801684D
:1016F0006FF4007001407C480160AA217B480170B2
:101700000D9800F0100060B9794801786FF0600022
:1017100001407748017077480078012800D0FAE747
:101720001CE00D9800F01000C0B10E997248814283
:1017300008D960216E4801706E480078802800D07A
:10174000FAE70BE06A4801786FF0600001406848F2
:10175000017068480078012800D0FAE704996748CA
:101760000160674801686FF440200140029800F46E
:101770004020014362480160624801686FF44030D4
:101780000140039800F4403001435E4801600F9827
:1017900030B10F98012803D00F98022800D061E0E3
:1017A000019800F0800050B9089800F0400028B17E
:1017B0000B9800F00300002800D100E015E052482B
:1017C000006840F40071504801605048016850487A
:1017D00001404E480160069800F0040028B14D48D1
:1017E00001684B4801404B4801600A994A48017022
:1017F00005994A480170059800F0040038B148483E
:10180000007800F01000002800D1F8E705E0444817
:10181000007800F0100000B1F9E74248007800F0CD
:10182000BF01C9B2069800F0FD0001433D480170B8
:10183000079800F0E0013C48007800F01F000143E9
:10184000394801700199394801700B993848017085
:101850000F98022805D13348007840F00201314842
:101860000170B8E0019800F0800020B90B9800F0FA
:10187000030000B165E02448006840F4007122488C
:101880000160224801682248014020480160069812
:1018900000F0040000F04EB80000000000000C0052
:1018A00000000100000014012200000024000000DC
:1018B00000000000020000004600000000000000E0
:1018C0000000000000000000000000000700000011
:1018D000C0D401000E2005400020054000F0074064
:1018E00002D007403C80044010D0034000E0074095
:1018F00001E0074003E007408038010044800440D5
:101900000070044004800440388004404890044043
:10191000FFF8FFFE4C90044008400640004006409F
:101920000640064001400640034006400050064085
:101930000C40064028B17A4801687A48014078484E
:1019400001600A99784801707848007800F0BF017A
:10195000C9B2069800F0FD00014374480170019976
:10196000734801700B99734801700F98072805D1CF
:10197000059840F080017048017002E005996E48BA
:101980000170069800F0040048B10B9800F00300C5
:1019900028B96A48007800F0020000B9F9E7059814
:1019A00000F0040038B16548007800F0100000280D
:1019B00000D1F8E705E06148007800F0100000B1C0
:1019C000F9E7079800F0E0015D48007800F01F009B
:1019D00001435B480170089800F0BF01594801704D
:1019E000099800F0BF0158480170089800F04000C5
:1019F00028B15448007840F04001524801700F98D7
:101A0000052806D14948007840F002014748017096
:101A10001BE00F98062803D00F98072800D014E089
:101A20004948007840F04001474801704348007839
:101A300000F0400000B9F9E70F98072805D13E48AB
:101A4000007800F03F013C4801700F9818B10F98E2
:101A5000032800D02CE03948007800F00C0000B1D9
:101A6000F9E73A48006840F00101384801604FF05A
:101A70000001374801604FF08001364801604FF0A7
:101A80000501354801604FF00101324801603148DD
:101A9000006800F0800000B9F9E700212D480160DE
:101AA0002A4801686FF001000140284801602AE0DF
:101AB0000F98012803D00F98022800D007E01F4894
:101AC000007800F00C00042800D0F8E71BE00F9825
:101AD000042806D00F98062803D00F98052800D0B8
:101AE00007E01648007800F00C00082800D0F8E75E
:101AF00009E00F98072806D11048007800F00C0084
:101B00000C2800D0F8E7154801686FF00F0001407D
:101B10000C9800F00F0001431048016010B07047AE
:101B20004C900440FFF8FFFE08400640014006408C
:101B3000005006400C40064000400640064006406B
:101B400003400640044006400540064038800440FB
:101B500008000440000004400400044048800440A1
:101B60005103000050030000FFFFFFFF00000000D2
:101B70000000000000000000000000000000000065
:101B80000000000000000000000000000000000055
:101B9000000000000000080000000800FFFFFFFF39
:101BA0000000000000000000000000000000000035
:101BB0000000000000000000000000000000000025
:101BC00000000000000000000000000063030000AF
:101BD00062030000FFFFFFFF0000000000000000A4
:101BE00000000000000000000000000000000000F5
:101BF00000000000000000000000000000000000E5
:101C00000000080000000800FFFFFFFF00000000C8
:101C100000000000000000000000000000000000C4
:101C200000000000000000000000000000000000B4
:101C30000000000000000000FFFFFFFFFFFFFFFFAC
:101C4000FFFFFFFFFFFFFFFFFFFFFFFFFFFFFFFFA4
:101C5000FFFFFFFFFFFFFFFFFFFFFFFFFFFFFFFF94
:101C6000FFFFFFFFFFFFFFFFFFFFFFFFFFFFFFFF84
:101C7000FFFFFFFFFFFFFFFFFFFFFFFFFFFFFFFF74
:101C8000FFFFFFFFFFFFFFFFFFFFFFFFFFFFFFFF64
:101C9000FFFFFFFFFFFFFFFF496E697469616C6919
:101CA0007A656400417070726F616368696E670085
:101CB0004E6F206D6F7665736D656E74004D6F7637
:101CC000696E67206177617900404C0D0A00004021
:101CD000430D0A0000404E0D0A0000FF8025000061
:101CE000000000000000000000000000210B0000C8
:101CF000FD090000810C000000B5DFF814B0DFF82A
:101D000014A0DFF814C0FFF7BBFB00BD704700BF95
:101D10000000FF1F4300FF1F981C0000FFFFFFFF94
:101D2000FFFFFFFFFFFFFFFFFFFFFFFFFFFFFFFFC3
:101D3000FFFFFFFFFFFFFFFFFFFFFFFFFFFFFFFFB3
:101D4000FFFFFFFFFFFFFFFFFFFFFFFFFFFFFFFFA3
:101D5000FFFFFFFFFFFFFFFFFFFFFFFFFFFFFFFF93
:101D6000FFFFFFFFFFFFFFFFFFFFFFFFFFFFFFFF83
:101D7000FFFFFFFFFFFFFFFF00B5DFF810B0DFF848
:101D800010A0FFF701FC00BD704700BF0000FF1F5F
:101D90004001FF1FFFFFFFFFFFFFFFFFFFFFFFFFF0
:00000001FF
