:10000000D0EF0AF00000000000EF00F00000000058
:0A0010000000000000000000F3D71C
:0E001C00000190B102D08B9801D08B881200A9
:0E002A00000190B102D0899201D089821200AB
:0E003800000190B102D08B9601D08B86120091
:0E004600000190B102D08B9E01D08B8E120073
:0E005400000190B102D08B9C01D08B8C120069
:0E006200000190B102D08B9801D08B88120063
:0E007000000190B102D08B9A01D08B8A120051
:0E007E00000190B102D08B9601D08B8612004B
:0E008C00000190B102D0899801D0898812003D
:0E009A00000190B102D08D9201D08D82120033
:0E00A800000190B102D08B9001D08B8012002D
:0E00B600000190B102D08D9001D08D8012001B
:0E00C400000190B102D0899001D08980120015
:0E00D200ACB202D00000FCD790C0ADFF12000F
:1000E0000F0121B302D00000FBD790C01CFF12000B
:0E00F000000190B102D08B9201D08B821200E1
:0E00FE00000190B102D08A9001D08A801200D9
:0E010C00000190B102D08B9A01D08B8A1200B4
:0E011A00000190B102D08B9601D08B861200AE
:0E012800000190B102D08B9801D08B8812009C
:0E013600000190B102D08B9401D08B84120096
:0E014400000190B102D08F9001D08F80120088
:0E015200000190B102D08A9401D08A8412007C
:0E016000000190B102D08B9801D08B88120064
:0E016E00000190B102D08B9A01D08B8A120052
:0E017C00000190B102D08B9601D08B8612004C
:0E018A00000190B102D08B9801D08B8812003A
:0E019800000190B102D08F9401D08F8412002C
:0E01A600000190B102D08F9201D08F82120022
:0E01B400000190B102D08B9601D08B86120014
:0E01C200000190B102D08B9C01D08B8C1200FA
:0E01D000000190B102D08B9601D08B861200F8
:0E01DE00000190B102D08A9201D08A821200F4
:0E01EC00000190B102D08B9E01D08B8E1200CC
:0E01FA00000190B102D08D9601D08D861200CA
:0E020800000190B102D08D9401D08D841200BF
:0E021600000190B102D08B9801D08B881200AD
:0E022400000190B102D0899401D089841200AB
:0A023200000E82B8010E006E1200EB
:0A023C00000E82B6010E006E1200E3
:0A024600000E86B2010E006E1200D9
:0A025000000E84B4010E006E1200CF
:0A025A00000E84B6010E006E1200C3
:0A026400000E82B6010E006E1200BB
:0A026E00000E82B6010E006E1200B1
:0A027800000E80B4010E006E1200AB
:0A028200000E82BC010E006E120097
:0A028C00000E86B0010E006E120095
:0A029600000E86B4010E006E120087
:1002A000F250026EF29E0500FF6A0150FE6E005091
:0802B000FD6E02BEF28E120089
:0A02B800000E82BA010E006E120063
:0A02C200000E82B8010E006E12005B
:0A02CC00000E82B8010E006E120051
:0A02D600000E84B0010E006E12004D
:0A02E000000E81B4010E006E120042
:0A02EA00000E82B0010E006E12003B
:0A02F400000E80B0010E006E120033
:0A02FE00000E82BE010E006E120019
:10030800AECF01F0ABA202D0AB98AB8801C000F031
:020318001200D1
:0A031A00000E82B8010E006E120002
:0A032400000EACB2010E006E1200D4
:0A032E00000E84B2010E006E1200F2
:0A033800000E9EBA010E006E1200C6
:0A034200000E82B6010E006E1200DC
:0C034C00000E0F0121B3010E006E120024
:0A035800000EA4BA010E006E1200A0
:100362001DCF01F00F0122A302D02299228901C0E0
:0403720000F0120085
:0A037600000E82B2010E006E1200AC
:0A038000000E82B6010E006E12009E
:0A038A00000E81B0010E006E12009B
:0A039400000E82BC010E006E120084
:0A039E00000E82BA010E006E12007C
:0A03A800000E82B8010E006E120074
:0A03B200000E81B2010E006E120071
:0A03BC00000E82BA010E006E12005E
:0A03C600000E80B8010E006E120058
:0A03D000000E80B2010E006E120054
:0A03DA00000E82BE010E006E12003C
:0A03E400000E82B6010E006E12003A
:0A03EE00000E82B4010E006E120032
:0A03F800000E82B8010E006E120024
:100402004FC0E1FF50C0E2FF8FC0E6FF4DC000F0D9
:080412004EC001F044DF1200AE
:10041A00E00E346E000E356E900E366E000E376E9C
:10042A00620E306E030E316E000E326E000E336EA7
:10043A00580E386E030E396E000E3A6E000E3B6E81
:10044A004C0E406E030E416E000E426E000E436E5D
:10045A000F01218B900E226F98849892A4AA03D040
:08046A001DCF00F0FBD71200CA
:10047200D20E346E000E356E900E366E000E376E52
:10048200080E306E030E316E000E326E000E336EA9
:10049200380E386E030E396E000E3A6E000E3B6E49
:1004A200240E406E030E416E000E426E000E436E2D
:1004B200AC8A900EAB6E948E949C9EAA03D0AECF63
:0604C20000F0FBD7120060
:1004C800300E00018925006E000E8A21016E000E93
:1004D8008B21026E00C0F6FF01C0F7FF02C0F8FFD3
:1004E8000900F5CF51F00900F5CF52F00900F5CF1A
:1004F80053F00900F5CF54F01C0E0024F66E000EE0
:100508000120F76E000E0220F86E0900F5CF55F0B5
:100518000900F5CF56F00900F5CF57F00900F5CFDF
:0405280058F0120075
:10052C0089C0F6FF8AC0F7FF8BC0F8FF0900F5CF32
:10053C004DF00900F5CF4EF00900F5CF4FF0090052
:10054C00F5CF50F0040E00018925F66E000E8A21BD
:10055C00F76E000E8B21F86E0900F5CF3CF0090008
:10056C00F5CF3DF00900F5CF3EF00900F5CF3FF097
:10057C00080E8925F66E000E8A21F76E000E8B216F
:10058C00F86E0900F5CF49F00900F5CF4AF00900E3
:0C059C00F5CF4BF00900F5CF4CF0120039
:1005A80089C08CF08AC08DF08BC08EF021D0CF0E20
:1005B800AF6EAC945ADFD9D0670EAF6EAC9455DFEE
:1005C800D4D0CF0EAF6EAC8450DFCFD0670EAF6EF5
:1005D800AC844BDFCAD0440EAF6EAC8446DFC5D0C6
:1005E800220EAF6EAC8441DFC0D0050E006EBFD0C6
:1005F8008CC0F6FF8DC0F7FF8EC0F8FF0900F5CF5D
:1006080001F00900F5CF02F00900F5CF03F0090069
:10061800F5CF04F0000E006E041808E1005003182E
:1006280005E1120E021802E10150C00AC0E08CC0B8
:10063800F6FF8DC0F7FF8EC0F8FF0900F5CF01F077
:100648000900F5CF02F00900F5CF03F00900F5CF56
:1006580004F0000E006E041808E10050031805E1CC
:10066800250E021802E10150800AA6E08CC0F6FFB0
:100678008DC0F7FF8EC0F8FF0900F5CF01F0090023
:10068800F5CF02F00900F5CF03F00900F5CF04F02B
:10069800000E006E041808E10050031805E14B0E27
:1006A800021802E10150000A8CE08CC0F6FF8DC0F0
:1006B800F7FF8EC0F8FF0900F5CF01F00900F5CF6C
:1006C80002F00900F5CF03F00900F5CF04F0000EA1
:1006D800006E041808E10050031805E1960E021890
:1006E80002E10150000AD8B471D78CC0F6FF8DC062
:1006F800F7FF8EC0F8FF0900F5CF01F00900F5CF2C
:1007080002F00900F5CF03F00900F5CF04F0000E60
:10071800006E041808E10050031805E1E10E021804
:1007280002E10150000AD8B456D78CC0F6FF8DC03C
:10073800F7FF8EC0F8FF0900F5CF01F00900F5CFEB
:1007480002F00900F5CF03F00900F5CF04F00450DA
:10075800000A08E10350010A05E10250C20A02E159
:100768000150000AD8B43CD740D7000E006E1200E2
:1007780021D0CF0EAF6EAC9478DE6BD0670EAF6E23
:10078800AC9473DE66D0CF0EAF6EAC846EDE61D0F3
:10079800670EAF6EAC8469DE5CD0440EAF6EAC847D
:1007A80064DE57D0220EAF6EAC845FDE52D0060EE8
:1007B800006E58D0000E006E00018C1908E1005040
:1007C8008B1905E1120E8A1902E18951C00AD1E09C
:1007D800000E006E8C1908E100508B1905E1250EFA
:1007E8008A1902E18951800AC9E0000E006E8C194D
:1007F80008E100508B1905E14B0E8A1902E1895175
:10080800000AC1E0000E006E8C1908E100508B1937
:1008180005E1960E8A1902E18951000AB9E0000E35
:10082800006E8C1908E100508B1905E1E10E8A1958
:1008380002E18951000AB1E08C51000A08E18B51AC
:10084800010A05E18A51C20A02E18951000AAAE0B7
:10085800AED7D20E446E000E456E900E466E000E58
:06086800476E006A120059
:10086E0021D0CF0EAF6EAC94FDDD6BD0670EAF6EA8
:10087E00AC94F8DD66D0CF0EAF6EAC84F3DD61D0F4
:10088E00670EAF6EAC84EEDD5CD0440EAF6EAC8402
:10089E00E9DD57D0220EAF6EAC84E4DD52D0060EE9
:1008AE00006E58D0000E006E00018C1908E1005049
:1008BE008B1905E1120E8A1902E18951C00AD1E0A5
:1008CE00000E006E8C1908E100508B1905E1250E03
:1008DE008A1902E18951800AC9E0000E006E8C1956
:1008EE0008E100508B1905E14B0E8A1902E189517E
:1008FE00000AC1E0000E006E8C1908E100508B1941
:10090E0005E1960E8A1902E18951000AB9E0000E3E
:10091E00006E8C1908E100508B1905E1E10E8A1961
:10092E0002E18951000AB1E08C51000A08E18B51B5
:10093E00010A05E18A51C20A02E18951000AAAE0C0
:10094E00AED7D20E446E000E456E900E466E000E61
:06095E00476E006A120062
:06096400050E006E1200FA
:10096A0038D00F0120870D0E1F6F040E1E6F2185D0
:10097A004FDD7ED00F012087060E1F6F820E1E6F7D
:10098A00218546DD75D00F012087030E1F6F400EAB
:10099A001E6F21853DDD6CD00F012087010E1F6F70
:1009AA00A00E1E6F218534DD63D00F012087010E52
:1009BA001F6F150E1E6F21852BDD5AD00F01208760
:1009CA001F6B8A0E1E6F218523DD52D0060E006E24
:1009DA0058D0000E006E00018C1908E100508B19E6
:1009EA0005E1120E8A1902E18951C00ABAE0000E25
:1009FA00006E8C1908E100508B1905E1250E8A1941
:100A0A0002E18951800AB6E0000E006E8C1908E1F5
:100A1A0000508B1905E14B0E8A1902E18951000A2F
:100A2A00B2E0000E006E8C1908E100508B1905E146
:100A3A00960E8A1902E18951000AAEE0000E006E94
:100A4A008C1908E100508B1905E1E10E8A1902E1BF
:100A5A008951000AAAE08C51000A08E18B51010A67
:100A6A0005E18A51C20A02E18951000AA7E0AED71C
:100A7A00E00E446E000E456E900E466E000E476EF6
:040A8A00006A1200EC
:100A8E0021D0CF0EAF6EAC94EDDC6BD0670EAF6E97
:100A9E00AC94E8DC66D0CF0EAF6EAC84E3DC61D0F4
:100AAE00670EAF6EAC84DEDC5CD0440EAF6EAC84F1
:100ABE00D9DC57D0220EAF6EAC84D4DC52D0060EE9
:100ACE00006E58D0000E006E00018C1908E1005027
:100ADE008B1905E1120E8A1902E18951C00AD1E083
:100AEE00000E006E8C1908E100508B1905E1250EE1
:100AFE008A1902E18951800AC9E0000E006E8C1934
:100B0E0008E100508B1905E14B0E8A1902E189515B
:100B1E00000AC1E0000E006E8C1908E100508B191E
:100B2E0005E1960E8A1902E18951000AB9E0000E1C
:100B3E00006E8C1908E100508B1905E1E10E8A193F
:100B4E0002E18951000AB1E08C51000A08E18B5193
:100B5E00010A05E18A51C20A02E18951000AAAE09E
:100B6E00AED7D20E446E000E456E900E466E000E3F
:060B7E00476E006A120040
:100B840089C08CF08AC08DF08BC08EF021D0CF0E3E
:100B9400AF6EAC946CDCD9D0670EAF6EAC9467DCEE
:100BA400D4D0CF0EAF6EAC8462DCCFD0670EAF6E04
:100BB400AC845DDCCAD0440EAF6EAC8458DCC5D0C6
:100BC400220EAF6EAC8453DCC0D0050E006EBFD0D5
:100BD4008CC0F6FF8DC0F7FF8EC0F8FF0900F5CF7B
:100BE40001F00900F5CF02F00900F5CF03F0090088
:100BF400F5CF04F0000E006E041808E1005003184D
:100C040005E1120E021802E10150C00AC0E08CC0D6
:100C1400F6FF8DC0F7FF8EC0F8FF0900F5CF01F095
:100C24000900F5CF02F00900F5CF03F00900F5CF74
:100C340004F0000E006E041808E10050031805E1EA
:100C4400250E021802E10150800AA6E08CC0F6FFCE
:100C54008DC0F7FF8EC0F8FF0900F5CF01F0090041
:100C6400F5CF02F00900F5CF03F00900F5CF04F049
:100C7400000E006E041808E10050031805E14B0E45
:100C8400021802E10150000A8CE08CC0F6FF8DC00E
:100C9400F7FF8EC0F8FF0900F5CF01F00900F5CF8A
:100CA40002F00900F5CF03F00900F5CF04F0000EBF
:100CB400006E041808E10050031805E1960E0218AE
:100CC40002E10150000AD8B471D78CC0F6FF8DC080
:100CD400F7FF8EC0F8FF0900F5CF01F00900F5CF4A
:100CE40002F00900F5CF03F00900F5CF04F0000E7F
:100CF400006E041808E10050031805E1E10E021823
:100D040002E10150000AD8B456D78CC0F6FF8DC05A
:100D1400F7FF8EC0F8FF0900F5CF01F00900F5CF09
:100D240002F00900F5CF03F00900F5CF04F00450F8
:100D3400000A08E10350010A05E10250C20A02E177
:100D44000150000AD8B43CD740D7000E006E120000
:0A0D540089C08FF001EC02F01200DC
:100D5E0059D000018AB102D0929201D092820F0135
:100D6E00259376D000018AB102D0929801D0928854
:100D7E006FD000018AB102D0969201D0968268D0CF
:100D8E0000018AB102D0949601D0948661D0000100
:100D9E008AB102D0949801D094885AD000018AB1B9
:100DAE0002D0949A01D0948A53D000018AB102D015
:100DBE00949401D094844CD000018AB102D09392C5
:100DCE0001D0938245D000018AB102D0949E01D009
:100DDE00948E3ED000018AB102D0949C01D0948CA6
:100DEE0037D000018AB102D0949601D0948630D0CB
:100DFE0000018AB102D0949801D0948829D0010EB6
:100E0E00006E28D000018951000AA3E08951010A21
:100E1E00A9E08951020AADE08951030AB1E0895176
:100E2E00040AB5E08951050AB9E08951060ABDE008
:100E3E008951070AC1E08951080AC5E08951090A9A
:100E4E00C9E089510A0ACDE089510B0AD1E0D7D702
:060E5E00000E006E120000
:0E0E64003CC000F03DC001F050EC01F0120067
:100E720059D000018AB102D0929001D092800F0124
:100E8200259176D000018AB102D0949001D094804D
:100E92006FD000018AB102D0969001D0968068D0BE
:100EA20000018AB102D0949601D0948661D00001EB
:100EB2008AB102D0949801D094885AD000018AB1A4
:100EC20002D0949A01D0948A53D000018AB102D000
:100ED200949201D094824CD000018AB102D09390B6
:100EE20001D0938045D000018AB102D0949E01D0F6
:100EF200948E3ED000018AB102D0949C01D0948C91
:100F020037D000018AB102D0949601D0948630D0B5
:100F120000018AB102D0949801D0948829D0010EA0
:100F2200006E28D000018951000AA3E08951010A0C
:100F3200A9E08951020AADE08951030AB1E0895161
:100F4200040AB5E08951050AB9E08951060ABDE0F3
:100F52008951070AC1E08951080AC5E08951090A85
:100F6200C9E089510A0ACDE089510B0AD1E0D7D7ED
:060F7200000E006E1200EB
:100F780089C0E9FF8AC0EAFF8BC0D9FF8CC0DAFFBD
:100F8800EE50DE1819E189C0E9FF8AC0EAFFEE5089
:100F9800000A0CE189C0E9FF8AC0EAFF8BC0D9FFCB
:100FA8008CC0DAFFDE50EE5C006E08D00001894B81
:0E0FB8008A2B8B4B8C2BDCD7010E006E1200A7
:100FC60046C0E1FF47C0E2FF89C0E9FF8AC0EAFFE9
:100FD600EECFE6FF44C000F045C001F050EC01F052
:040FE600006A12008B
:100FEA005DD000018AB102D0929401D092840F019F
:100FFA0025957AD000018AB102D0969601D09686BC
:10100A0073D000018AB102D0969401D096846CD034
:10101A0000018AB102D0949601D0948665D000016D
:10102A008AB102D0949801D094885ED000018AB126
:10103A0002D0949A01D0948A57D000018AB102D082
:10104A00989001D0988050D000018AB102D0939430
:10105A0001D0938449D000018AB102D0989401D07A
:10106A0098840F01239540D000018AB102D098924A
:10107A0001D098820F01239337D000018AB102D0A0
:10108A00949601D0948630D000018AB102D0949807
:10109A0001D0948829D0010E006E28D00001895110
:1010AA00000A9FE08951010AA5E08951020AA9E0D4
:1010BA008951030AADE08951040AB1E08951050A50
:1010CA00B5E08951060AB9E08951070ABDE089519C
:1010DA00080AC1E08951090AC7E089510A0ACDE024
:0E10EA0089510B0AD1E0D7D7000E006E12001C
:0E10F80049C000F04AC001F050EC01F01200B7
:1011060015D083C089F084C08AF0B0DE1AD083C0BF
:1011160089F084C08AF020DE14D083C089F084C0B0
:101126008AF060DF0ED0010E006E0BD000018251F6
:10113600000AE7E08251010AEAE08251020AEDE084
:04114600F2D71200CA
:10114A001DD083C089F084C08AF085C08BF015DD7C
:10115A0020D083C089F084C08AF085C08BF0D4EC9B
:10116A0002F017D083C089F084C08AF085C08BF062
:10117A00B2EC04F00ED0010E006E0BD000018251C9
:10118A00000ADFE08251010AE4E08251020AEAE041
:04119A00F2D7120076
:10119E0000018251831100E08451851100E0485016
:1011AE00010A48E1486A59C082F05AC083F02A0EFB
:1011BE00846F000E856F59C089F05AC08AF084C0C2
:1011CE008BF085C08CF0D1DE0050000A03E115C013
:1011DE0000F031D059C082F05AC083F01E0E0001CB
:1011EE00846F000E856F59C089F05AC08AF084C092
:1011FE008BF085C08CF0B9DE0050000A03E11DC0F3
:10120E0000F019D059C082F05AC083F0240E0001AC
:10121E00846F000E856F59C089F05AC08AF084C061
:10122E008BF085C08CF0A1DE0050000A03E116C0E1
:08123E0000F001D0006A12006B
:0412460058DF12005B
:04124A000CDE1200A4
:10124E0082C059F083C05AF05B5000018225E16ED6
:10125E00000E8321E26E84C0E6FF84C089F073DD48
:10126E005B2A82C0E9FF83C0EAFFEE50400AD8A491
:10127E005B6A5B50040A03E15B6A010E486E120062
:10128E0085C089F086C08AF087C08BF096EC02F09C
:10129E0082C089F083C08AF084C08BF064EC02F0C7
:0A12AE00486A5B6A596A5A6A120026
:1012B8002FD083C089F084C08AF085C08BF086C0A7
:1012C8008CF037EC04F032D083C089F084C08AF007
:1012D80085C08BF086C08CF047EC05F027D083C022
:1012E80089F084C08AF085C08BF086C08CF0B5EC9C
:1012F80004F01CD083C089F084C08AF085C08BF0CC
:1013080086C08CF0BCEC03F011D0010E006E0ED03C
:1013180000018251000ACDE08251010AD5E08251D4
:0E132800020ADDE08251100AE5E0EFD7120064
:1013360082C085F083C086F00D0E0001876F0A0E0D
:10134600886F35D085C089F086C08AF039DE3AD0FC
:1013560085C0E9FF86C0EAFFEE5209E085C089F044
:1013660086C08AF02DDE0001854B862BF1D72AD068
:1013760085C0E9FF86C0EAFFEE5209E085C089F024
:1013860086C08AF01DDE0001854B862BF1D7000151
:10139600870E896F000E8A6F13DE880E0001896F33
:1013A600000E8A6F0DDE0ED0060E006E0CD0000108
:1013B6008451000AC7E08451010ACAE08451020A36
:0813C600D7E0F2D7006A120023
:1013CE000001826B836B010E846F96DE0001826BCF
:1013DE00070E836F010E846F8FDE0001826B5A0E33
:1013EE00836F160E846F000E856FA8DE020E00014D
:1013FE00826F800E836F250E846F000E856F866F51
:10140E0054DF090E0B6E1E0E0C6EE40E0D6E0D2EBD
:0E141E00FED70C2EFCD70B2EFAD700001200C2
:10142C000900F5CFE6FF0006FBE10106F9E1120029
:10143C00AE0E0001826F150E836F000E846F4E0E80
:10144C00856F160E866F000E876F1BDF490E5C6E64
:10145C006E0E5D6E690E5E6E740E5F6E690E606F61
:10146C00610E616F6C0E626F690E636F7A0E646F42
:10147C00650E656F640E666F676B5C0E826F000E97
:10148C00836F020E846F51DF090E0B6E1E0E0C6EF5
:10149C00E40E0D6E0D2EFED70C2EFCD70B2EFAD7AC
:0414AC00000012002A
:1014B000CADE005209E0C9DE170E0001826F000E7D
:1014C000836F00C084F0C3DE6ADE00C081F000508C
:1014D0001D181FE1410E5C6E700E5D6E700E5E6E2B
:1014E000720E5F6E6F0E0001606F610E616F630EB2
:1014F000626F680E636F690E646F6E0E656F670EC4
:10150000666F676B5C0E826F000E836F020E846FD6
:1015100012DF00018151161820E14E0E686F6F0E28
:10152000696F200E6A6F6D0E6B6F6F0E6C6F760EAB
:101530006D6F650E6E6F730E6F6F6D0E706F650E53
:10154000716F6E0E726F740E736F746B680E826FB4
:10155000000E836F020E846FEEDE000181511518BC
:101560001EE14D0E756F6F0E766F760E776F690EFA
:10157000786F6E0E796F670E7A6F200E7B6F610E3B
:101580007C6F770E7D6F610E7E6F790E7F6F806B43
:10159000750E826F000E836F020E846FCCDE120018
:0E15A0002FEC0BF014DF4ADF83DFFED7FFD7FE
:10165E0010EE15F01B0E006E010E016E330EF66EBF
:0E166E00160EF76E000EF86E16EC0AF0120063
:1015AE00C4009000A8009000B60090001A019000B0
:1015BE00280190000C019000F0009000FE009000B9
:1015CE004600900054009000380090001C009000DF
:1015DE00F4020000EA020000D602000042030000FE
:1015EE001A030000BC030000760300008A0300000B
:1015FE00DA03000094030000E4030000F803000087
:0C160E00417070726F616368696E670064
:0D161A004E6F206D6F7665736D656E740008
:0C1627004D6F76696E6720617761790075
:0116330001B5
:0116340004B1
:06163500000000000000AF
:01163B0002AC
:06163C0040430D0A00000E
:06164200404E0D0A0000FD
:06164800404C0D0A0000F9
:0C164E00D20090000803000038030000E8
:04165A0080250000E7
:020000040030CA
:0E00000015137F7CF98B11FFFFC0FFE0FF405E
:00000001FF
